{
  "contractName": "Airline",
  "abi": [
    {
      "constant": true,
      "inputs": [
        {
          "name": "",
          "type": "uint256"
        }
      ],
      "name": "flights",
      "outputs": [
        {
          "name": "name",
          "type": "string"
        },
        {
          "name": "price",
          "type": "uint256"
        }
      ],
      "payable": false,
      "stateMutability": "view",
      "type": "function"
    },
    {
      "constant": true,
      "inputs": [
        {
          "name": "",
          "type": "address"
        }
      ],
      "name": "custumers",
      "outputs": [
        {
          "name": "loyalityPoints",
          "type": "uint256"
        },
        {
          "name": "totalFlights",
          "type": "uint256"
        }
      ],
      "payable": false,
      "stateMutability": "view",
      "type": "function"
    },
    {
      "constant": true,
      "inputs": [
        {
          "name": "",
          "type": "address"
        },
        {
          "name": "",
          "type": "uint256"
        }
      ],
      "name": "custumerFlights",
      "outputs": [
        {
          "name": "name",
          "type": "string"
        },
        {
          "name": "price",
          "type": "uint256"
        }
      ],
      "payable": false,
      "stateMutability": "view",
      "type": "function"
    },
    {
      "constant": true,
      "inputs": [
        {
          "name": "",
          "type": "address"
        }
      ],
      "name": "custumerTotalFlights",
      "outputs": [
        {
          "name": "",
          "type": "uint256"
        }
      ],
      "payable": false,
      "stateMutability": "view",
      "type": "function"
    },
    {
      "constant": true,
      "inputs": [],
      "name": "owner",
      "outputs": [
        {
          "name": "",
          "type": "address"
        }
      ],
      "payable": false,
      "stateMutability": "view",
      "type": "function"
    },
    {
      "inputs": [],
      "payable": false,
      "stateMutability": "nonpayable",
      "type": "constructor"
    },
    {
      "anonymous": false,
      "inputs": [
        {
          "indexed": true,
          "name": "custumer",
          "type": "address"
        },
        {
          "indexed": false,
          "name": "price",
          "type": "uint256"
        },
        {
          "indexed": false,
          "name": "flight",
          "type": "string"
        }
      ],
      "name": "FlightPurchased",
      "type": "event"
    },
    {
      "constant": false,
      "inputs": [
        {
          "name": "flightIndex",
          "type": "uint256"
        }
      ],
      "name": "buyFlight",
      "outputs": [],
      "payable": true,
      "stateMutability": "payable",
      "type": "function"
    },
    {
      "constant": true,
      "inputs": [],
      "name": "totalFlights",
      "outputs": [
        {
          "name": "",
          "type": "uint256"
        }
      ],
      "payable": false,
      "stateMutability": "view",
      "type": "function"
    },
    {
      "constant": false,
      "inputs": [],
      "name": "reedemLoyalityPoints",
      "outputs": [],
      "payable": false,
      "stateMutability": "nonpayable",
      "type": "function"
    },
    {
      "constant": true,
      "inputs": [],
      "name": "getRefundableEther",
      "outputs": [
        {
          "name": "",
          "type": "uint256"
        }
      ],
      "payable": false,
      "stateMutability": "view",
      "type": "function"
    },
    {
      "constant": true,
      "inputs": [],
      "name": "getAirlineBalance",
      "outputs": [
        {
          "name": "",
          "type": "uint256"
        }
      ],
      "payable": false,
      "stateMutability": "view",
      "type": "function"
    }
  ],
  "bytecode": "0x60806040526706f05b59d3b2000060015534801561001c57600080fd5b50336000806101000a81548173ffffffffffffffffffffffffffffffffffffffff021916908373ffffffffffffffffffffffffffffffffffffffff160217905550600260408051908101604052806040805190810160405280600681526020017f426f676f746100000000000000000000000000000000000000000000000000008152508152602001678ac7230489e800008152509080600181540180825580915050906001820390600052602060002090600202016000909192909190915060008201518160000190805190602001906100f89291906103af565b5060208201518160010155505050600260408051908101604052806040805190810160405280600581526020017f546f6b696f0000000000000000000000000000000000000000000000000000008152508152602001673782dace9d9000008152509080600181540180825580915050906001820390600052602060002090600202016000909192909190915060008201518160000190805190602001906101a19291906103af565b5060208201518160010155505050600260408051908101604052806040805190810160405280600881526020017f4e657720596f726b0000000000000000000000000000000000000000000000008152508152602001674563918244f4000081525090806001815401808255809150509060018203906000526020600020906002020160009091929091909150600082015181600001908051906020019061024a9291906103af565b5060208201518160010155505050600260408051908101604052806040805190810160405280600681526020017f4d616472696400000000000000000000000000000000000000000000000000008152508152602001676124fee993bc00008152509080600181540180825580915050906001820390600052602060002090600202016000909192909190915060008201518160000190805190602001906102f39291906103af565b5060208201518160010155505050600260408051908101604052806040805190810160405280600b81526020017f4c6f7320416e67656c65730000000000000000000000000000000000000000008152508152602001677ce66c50e284000081525090806001815401808255809150509060018203906000526020600020906002020160009091929091909150600082015181600001908051906020019061039c9291906103af565b5060208201518160010155505050610454565b828054600181600116156101000203166002900490600052602060002090601f016020900481019282601f106103f057805160ff191683800117855561041e565b8280016001018555821561041e579182015b8281111561041d578251825591602001919060010190610402565b5b50905061042b919061042f565b5090565b61045191905b8082111561044d576000816000905550600101610435565b5090565b90565b610aae80620004646000396000f3006080604052600436106100a4576000357c0100000000000000000000000000000000000000000000000000000000900463ffffffff1680630ca97e48146100a957806315ccf70f146100c95780631ae0b2c3146101765780632411ff73146101d457806329cd30b4146101ff5780632dfee7501461022a5780634bf02e7a146102f75780636444c0521461032257806364dcc20c146103795780638da5cb5b14610390575b600080fd5b6100c7600480360381019080803590602001909291905050506103e7565b005b3480156100d557600080fd5b506100f460048036038101908080359060200190929190505050610654565b6040518080602001838152602001828103825284818151815260200191508051906020019080838360005b8381101561013a57808201518184015260208101905061011f565b50505050905090810190601f1680156101675780820380516001836020036101000a031916815260200191505b50935050505060405180910390f35b34801561018257600080fd5b506101b7600480360381019080803573ffffffffffffffffffffffffffffffffffffffff16906020019092919050505061071f565b604051808381526020018281526020019250505060405180910390f35b3480156101e057600080fd5b506101e9610743565b6040518082815260200191505060405180910390f35b34801561020b57600080fd5b50610214610791565b6040518082815260200191505060405180910390f35b34801561023657600080fd5b50610275600480360381019080803573ffffffffffffffffffffffffffffffffffffffff16906020019092919080359060200190929190505050610810565b6040518080602001838152602001828103825284818151815260200191508051906020019080838360005b838110156102bb5780820151818401526020810190506102a0565b50505050905090810190601f1680156102e85780820380516001836020036101000a031916815260200191505b50935050505060405180910390f35b34801561030357600080fd5b5061030c6108e8565b6040518082815260200191505060405180910390f35b34801561032e57600080fd5b50610363600480360381019080803573ffffffffffffffffffffffffffffffffffffffff1690602001909291905050506108f5565b6040518082815260200191505060405180910390f35b34801561038557600080fd5b5061038e61090d565b005b34801561039c57600080fd5b506103a56109b1565b604051808273ffffffffffffffffffffffffffffffffffffffff1673ffffffffffffffffffffffffffffffffffffffff16815260200191505060405180910390f35b6000806002838154811015156103f957fe5b9060005260206000209060020201915081600101543414151561041b57600080fd5b600360003373ffffffffffffffffffffffffffffffffffffffff1673ffffffffffffffffffffffffffffffffffffffff16815260200190815260200160002090506005816000016000828254019250508190555060018160010160008282540192505081905550600460003373ffffffffffffffffffffffffffffffffffffffff1673ffffffffffffffffffffffffffffffffffffffff1681526020019081526020016000208290806001815401808255809150509060018203906000526020600020906002020160009091929091909150600082018160000190805460018160011615610100020316600290046105149291906109d6565b50600182015481600101555050506001600560003373ffffffffffffffffffffffffffffffffffffffff1673ffffffffffffffffffffffffffffffffffffffff168152602001908152602001600020600082825401925050819055503373ffffffffffffffffffffffffffffffffffffffff167f1a02c9b180301ecb4108648e8e1cd231f2857cc169519367000f7380f57566c483600101548460000160405180838152602001806020018281038252838181546001816001161561010002031660029004815260200191508054600181600116156101000203166002900480156106405780601f1061061557610100808354040283529160200191610640565b820191906000526020600020905b81548152906001019060200180831161062357829003601f168201915b5050935050505060405180910390a2505050565b60028181548110151561066357fe5b9060005260206000209060020201600091509050806000018054600181600116156101000203166002900480601f01602080910402602001604051908101604052809291908181526020018280546001816001161561010002031660029004801561070f5780601f106106e45761010080835404028352916020019161070f565b820191906000526020600020905b8154815290600101906020018083116106f257829003601f168201915b5050505050908060010154905082565b60036020528060005260406000206000915090508060000154908060010154905082565b6000600360003373ffffffffffffffffffffffffffffffffffffffff1673ffffffffffffffffffffffffffffffffffffffff1681526020019081526020016000206000015460015402905090565b6000806000809054906101000a900473ffffffffffffffffffffffffffffffffffffffff1673ffffffffffffffffffffffffffffffffffffffff163373ffffffffffffffffffffffffffffffffffffffff161415156107ef57600080fd5b3090508073ffffffffffffffffffffffffffffffffffffffff163191505090565b60046020528160005260406000208181548110151561082b57fe5b906000526020600020906002020160009150915050806000018054600181600116156101000203166002900480601f0160208091040260200160405190810160405280929190818152602001828054600181600116156101000203166002900480156108d85780601f106108ad576101008083540402835291602001916108d8565b820191906000526020600020905b8154815290600101906020018083116108bb57829003601f168201915b5050505050908060010154905082565b6000600280549050905090565b60056020528060005260406000206000915090505481565b600080600360003373ffffffffffffffffffffffffffffffffffffffff1673ffffffffffffffffffffffffffffffffffffffff168152602001908152602001600020915081600001546001540290503373ffffffffffffffffffffffffffffffffffffffff166108fc829081150290604051600060405180830381858888f193505050501580156109a2573d6000803e3d6000fd5b50600082600001819055505050565b6000809054906101000a900473ffffffffffffffffffffffffffffffffffffffff1681565b828054600181600116156101000203166002900490600052602060002090601f016020900481019282601f10610a0f5780548555610a4c565b82800160010185558215610a4c57600052602060002091601f016020900482015b82811115610a4b578254825591600101919060010190610a30565b5b509050610a599190610a5d565b5090565b610a7f91905b80821115610a7b576000816000905550600101610a63565b5090565b905600a165627a7a723058206a2611c0140941d529151a45a845751a0885ec2e21f83b7c109342433d415f9a0029",
  "source": "pragma solidity ^0.4.24;\r\n\r\ncontract Airline {\r\n\r\n    address public owner;\r\n    uint etherPerPoint = 0.5 ether;\r\n    Flight[] public flights;\r\n\r\n    struct Custumer {\r\n        uint loyalityPoints;\r\n        uint totalFlights;\r\n    }\r\n\r\n    struct Flight {\r\n        string name;\r\n        uint price;\r\n    }\r\n\r\n    mapping(address => Custumer) public custumers;\r\n    mapping(address => Flight[]) public custumerFlights;\r\n    mapping(address => uint) public custumerTotalFlights;\r\n\r\n    event FlightPurchased(address indexed custumer, uint price, string flight);\r\n\r\n    constructor() public {\r\n        owner = msg.sender;\r\n\r\n        // Cargar vuelos iniciales\r\n        flights.push(Flight('Bogota', 10 ether));\r\n        flights.push(Flight('Tokio', 4 ether));\r\n        flights.push(Flight('New York', 5 ether));\r\n        flights.push(Flight('Madrid', 7 ether));\r\n        flights.push(Flight('Los Angeles', 9 ether));\r\n    }\r\n\r\n    function buyFlight(uint flightIndex) public payable {\r\n         Flight storage flight = flights[flightIndex];\r\n         require(msg.value == flight.price);\r\n\r\n         Custumer storage custumer = custumers[msg.sender];\r\n         custumer.loyalityPoints += 5;\r\n         custumer.totalFlights += 1;\r\n         custumerFlights[msg.sender].push(flight);\r\n         custumerTotalFlights[msg.sender] += 1;\r\n\r\n         FlightPurchased(msg.sender, flight.price, flight.name);\r\n    }\r\n\r\n\r\n    function totalFlights() public view returns (uint) {\r\n        return flights.length;\r\n    }\r\n\r\n    function reedemLoyalityPoints() public {\r\n        Custumer storage custumer = custumers[msg.sender];\r\n        uint etherToRefund = etherPerPoint * custumer.loyalityPoints;\r\n        msg.sender.transfer(etherToRefund);\r\n        custumer.loyalityPoints = 0;\r\n    }\r\n\r\n    function getRefundableEther() public view returns(uint) {\r\n        return etherPerPoint * custumers[msg.sender].loyalityPoints;\r\n    }\r\n\r\n    function getAirlineBalance() public isOwner view returns (uint) {\r\n        address airlineAddress = this;\r\n        return airlineAddress.balance;\r\n    }\r\n\r\n    modifier isOwner {\r\n        require(msg.sender == owner);\r\n        _;\r\n    }\r\n}",
  "sourcePath": "C:\\Users\\HectorDev\\Documents\\VotationUPC\\contracts\\Airline.sol",
  "compiler": {
    "name": "solc",
    "version": "0.4.25+commit.59dbf8f1.Emscripten.clang"
  },
  "schemaVersion": "2.0.2",
  "updatedAt": "2020-04-29T17:10:25.556Z"
}