{
  "contractName": "Ballot",
  "abi": [
    {
      "constant": true,
      "inputs": [],
      "name": "name",
      "outputs": [
        {
          "name": "",
          "type": "string"
        }
      ],
      "payable": false,
      "stateMutability": "view",
      "type": "function"
    },
    {
      "constant": true,
      "inputs": [],
      "name": "ballotEnd",
      "outputs": [
        {
          "name": "",
          "type": "uint256"
        }
      ],
      "payable": false,
      "stateMutability": "view",
      "type": "function"
    },
    {
      "constant": true,
      "inputs": [
        {
          "name": "",
          "type": "uint256"
        }
      ],
      "name": "candidates",
      "outputs": [
        {
          "name": "name",
          "type": "string"
        },
        {
          "name": "voteCount",
          "type": "uint256"
        }
      ],
      "payable": false,
      "stateMutability": "view",
      "type": "function"
    },
    {
      "constant": true,
      "inputs": [
        {
          "name": "",
          "type": "uint256"
        }
      ],
      "name": "votersAddress",
      "outputs": [
        {
          "name": "",
          "type": "address"
        }
      ],
      "payable": false,
      "stateMutability": "view",
      "type": "function"
    },
    {
      "constant": true,
      "inputs": [],
      "name": "totalVoters",
      "outputs": [
        {
          "name": "",
          "type": "uint256"
        }
      ],
      "payable": false,
      "stateMutability": "view",
      "type": "function"
    },
    {
      "constant": true,
      "inputs": [],
      "name": "proposal",
      "outputs": [
        {
          "name": "",
          "type": "string"
        }
      ],
      "payable": false,
      "stateMutability": "view",
      "type": "function"
    },
    {
      "constant": true,
      "inputs": [],
      "name": "ballotAdmin",
      "outputs": [
        {
          "name": "",
          "type": "address"
        }
      ],
      "payable": false,
      "stateMutability": "view",
      "type": "function"
    },
    {
      "constant": true,
      "inputs": [],
      "name": "state",
      "outputs": [
        {
          "name": "",
          "type": "uint8"
        }
      ],
      "payable": false,
      "stateMutability": "view",
      "type": "function"
    },
    {
      "constant": true,
      "inputs": [],
      "name": "totalDoneVotes",
      "outputs": [
        {
          "name": "",
          "type": "uint256"
        }
      ],
      "payable": false,
      "stateMutability": "view",
      "type": "function"
    },
    {
      "anonymous": false,
      "inputs": [
        {
          "indexed": false,
          "name": "name",
          "type": "string"
        },
        {
          "indexed": false,
          "name": "voteCount",
          "type": "uint256"
        }
      ],
      "name": "ElectionResult",
      "type": "event"
    },
    {
      "anonymous": false,
      "inputs": [
        {
          "indexed": false,
          "name": "voterEmail",
          "type": "string"
        },
        {
          "indexed": false,
          "name": "voterAddress",
          "type": "address"
        }
      ],
      "name": "voterAdded",
      "type": "event"
    },
    {
      "anonymous": false,
      "inputs": [
        {
          "indexed": false,
          "name": "started",
          "type": "string"
        }
      ],
      "name": "voteStarted",
      "type": "event"
    },
    {
      "anonymous": false,
      "inputs": [
        {
          "indexed": false,
          "name": "ended",
          "type": "string"
        }
      ],
      "name": "voteEnded",
      "type": "event"
    },
    {
      "anonymous": false,
      "inputs": [
        {
          "indexed": false,
          "name": "voter",
          "type": "address"
        }
      ],
      "name": "voteDone",
      "type": "event"
    },
    {
      "anonymous": false,
      "inputs": [
        {
          "indexed": false,
          "name": "",
          "type": "string"
        },
        {
          "indexed": false,
          "name": "votes",
          "type": "uint256"
        }
      ],
      "name": "showWinner",
      "type": "event"
    },
    {
      "anonymous": false,
      "inputs": [
        {
          "indexed": false,
          "name": "certificate",
          "type": "string"
        },
        {
          "indexed": false,
          "name": "timestamp",
          "type": "uint256"
        }
      ],
      "name": "showCertificate",
      "type": "event"
    },
    {
      "anonymous": false,
      "inputs": [
        {
          "indexed": false,
          "name": "name",
          "type": "string"
        },
        {
          "indexed": false,
          "name": "proposal",
          "type": "string"
        }
      ],
      "name": "showBallotInfo",
      "type": "event"
    },
    {
      "constant": false,
      "inputs": [
        {
          "name": "_name",
          "type": "string"
        },
        {
          "name": "_proposal",
          "type": "string"
        }
      ],
      "name": "createBallot",
      "outputs": [],
      "payable": false,
      "stateMutability": "nonpayable",
      "type": "function"
    },
    {
      "constant": false,
      "inputs": [
        {
          "name": "_name",
          "type": "string"
        }
      ],
      "name": "addCandidate",
      "outputs": [],
      "payable": false,
      "stateMutability": "nonpayable",
      "type": "function"
    },
    {
      "constant": false,
      "inputs": [
        {
          "name": "_email",
          "type": "string"
        }
      ],
      "name": "addVoter",
      "outputs": [],
      "payable": false,
      "stateMutability": "nonpayable",
      "type": "function"
    },
    {
      "constant": false,
      "inputs": [
        {
          "name": "durationMinutes",
          "type": "uint256"
        }
      ],
      "name": "startBallot",
      "outputs": [],
      "payable": false,
      "stateMutability": "nonpayable",
      "type": "function"
    },
    {
      "constant": false,
      "inputs": [
        {
          "name": "candidateIndex",
          "type": "uint256"
        }
      ],
      "name": "doVote",
      "outputs": [],
      "payable": false,
      "stateMutability": "nonpayable",
      "type": "function"
    },
    {
      "constant": false,
      "inputs": [],
      "name": "endBallot",
      "outputs": [],
      "payable": false,
      "stateMutability": "nonpayable",
      "type": "function"
    },
    {
      "constant": true,
      "inputs": [],
      "name": "getBallotState",
      "outputs": [
        {
          "name": "",
          "type": "uint8"
        }
      ],
      "payable": false,
      "stateMutability": "view",
      "type": "function"
    },
    {
      "constant": true,
      "inputs": [],
      "name": "winnerCandidate",
      "outputs": [
        {
          "name": "",
          "type": "string"
        },
        {
          "name": "",
          "type": "uint256"
        }
      ],
      "payable": false,
      "stateMutability": "view",
      "type": "function"
    },
    {
      "constant": true,
      "inputs": [],
      "name": "generateCertificate",
      "outputs": [
        {
          "name": "",
          "type": "string"
        },
        {
          "name": "",
          "type": "uint256"
        }
      ],
      "payable": false,
      "stateMutability": "view",
      "type": "function"
    },
    {
      "constant": true,
      "inputs": [],
      "name": "getTotalVoters",
      "outputs": [
        {
          "name": "",
          "type": "uint256"
        }
      ],
      "payable": false,
      "stateMutability": "view",
      "type": "function"
    },
    {
      "constant": true,
      "inputs": [],
      "name": "getTotalDoneVotes",
      "outputs": [
        {
          "name": "",
          "type": "uint256"
        }
      ],
      "payable": false,
      "stateMutability": "view",
      "type": "function"
    },
    {
      "constant": false,
      "inputs": [],
      "name": "getFinalResult",
      "outputs": [],
      "payable": false,
      "stateMutability": "nonpayable",
      "type": "function"
    },
    {
      "constant": true,
      "inputs": [
        {
          "name": "voterAddress",
          "type": "address"
        }
      ],
      "name": "getVoterState",
      "outputs": [
        {
          "name": "",
          "type": "bool"
        }
      ],
      "payable": false,
      "stateMutability": "view",
      "type": "function"
    },
    {
      "constant": true,
      "inputs": [],
      "name": "getTotalCandidates",
      "outputs": [
        {
          "name": "",
          "type": "uint256"
        }
      ],
      "payable": false,
      "stateMutability": "view",
      "type": "function"
    },
    {
      "constant": true,
      "inputs": [],
      "name": "getBallotInfo",
      "outputs": [
        {
          "name": "",
          "type": "string"
        },
        {
          "name": "",
          "type": "string"
        }
      ],
      "payable": false,
      "stateMutability": "view",
      "type": "function"
    },
    {
      "constant": true,
      "inputs": [
        {
          "name": "candidateIndex",
          "type": "uint256"
        }
      ],
      "name": "getCandidateName",
      "outputs": [
        {
          "name": "",
          "type": "string"
        }
      ],
      "payable": false,
      "stateMutability": "view",
      "type": "function"
    },
    {
      "constant": true,
      "inputs": [],
      "name": "getContractBalance",
      "outputs": [
        {
          "name": "",
          "type": "uint256"
        }
      ],
      "payable": false,
      "stateMutability": "view",
      "type": "function"
    },
    {
      "constant": false,
      "inputs": [],
      "name": "deposit",
      "outputs": [],
      "payable": true,
      "stateMutability": "payable",
      "type": "function"
    },
    {
      "constant": false,
      "inputs": [],
      "name": "withdraw",
      "outputs": [],
      "payable": false,
      "stateMutability": "nonpayable",
      "type": "function"
    }
  ],
  "bytecode": "0x608060405234801561001057600080fd5b506131a7806100206000396000f30060806040526004361061016a576000357c0100000000000000000000000000000000000000000000000000000000900463ffffffff16806306fdde031461016f5780630deb56ab146101ff578063124258c61461022a57806318034fe4146102575780633400ba11146102845780633477ee2e146102af5780633a47cb601461035c5780633c6e5310146103735780633ccfd60b1461038a57806343242daa146103a157806345a5c0891461040e578063462e91ec146104695780635f180fa9146104d25780635f5300ff146105695780636f9fb98a146105945780636fa4f103146105bf578063753ec1031461066e578063793cf218146106fe578063a15148d114610729578063a8aa3b0e146107c0578063aca8489214610817578063bd6fb43714610880578063c19d93fb146108b9578063d0e30db0146108f2578063e13804a7146108fc578063ea3b1bcf146109a2578063f48c31e9146109cd578063f767b1ca146109f8575b600080fd5b34801561017b57600080fd5b50610184610af4565b6040518080602001828103825283818151815260200191508051906020019080838360005b838110156101c45780820151818401526020810190506101a9565b50505050905090810190601f1680156101f15780820380516001836020036101000a031916815260200191505b509250505060405180910390f35b34801561020b57600080fd5b50610214610b92565b6040518082815260200191505060405180910390f35b34801561023657600080fd5b5061025560048036038101908080359060200190929190505050610b9f565b005b34801561026357600080fd5b5061028260048036038101908080359060200190929190505050610f99565b005b34801561029057600080fd5b5061029961130a565b6040518082815260200191505060405180910390f35b3480156102bb57600080fd5b506102da60048036038101908080359060200190929190505050611310565b6040518080602001838152602001828103825284818151815260200191508051906020019080838360005b83811015610320578082015181840152602081019050610305565b50505050905090810190601f16801561034d5780820380516001836020036101000a031916815260200191505b50935050505060405180910390f35b34801561036857600080fd5b506103716113db565b005b34801561037f57600080fd5b5061038861169a565b005b34801561039657600080fd5b5061039f6118ff565b005b3480156103ad57600080fd5b506103cc60048036038101908080359060200190929190505050611a70565b604051808273ffffffffffffffffffffffffffffffffffffffff1673ffffffffffffffffffffffffffffffffffffffff16815260200191505060405180910390f35b34801561041a57600080fd5b5061044f600480360381019080803573ffffffffffffffffffffffffffffffffffffffff169060200190929190505050611aae565b604051808215151515815260200191505060405180910390f35b34801561047557600080fd5b506104d0600480360381019080803590602001908201803590602001908080601f0160208091040260200160405190810160405280939291908181526020018383808284378201915050505050509192919290505050611b07565b005b3480156104de57600080fd5b506104e7611d27565b6040518080602001838152602001828103825284818151815260200191508051906020019080838360005b8381101561052d578082015181840152602081019050610512565b50505050905090810190601f16801561055a5780820380516001836020036101000a031916815260200191505b50935050505060405180910390f35b34801561057557600080fd5b5061057e6120d3565b6040518082815260200191505060405180910390f35b3480156105a057600080fd5b506105a96120d9565b6040518082815260200191505060405180910390f35b3480156105cb57600080fd5b5061066c600480360381019080803590602001908201803590602001908080601f0160208091040260200160405190810160405280939291908181526020018383808284378201915050505050509192919290803590602001908201803590602001908080601f0160208091040260200160405190810160405280939291908181526020018383808284378201915050505050509192919290505050612100565b005b34801561067a57600080fd5b50610683612244565b6040518080602001828103825283818151815260200191508051906020019080838360005b838110156106c35780820151818401526020810190506106a8565b50505050905090810190601f1680156106f05780820380516001836020036101000a031916815260200191505b509250505060405180910390f35b34801561070a57600080fd5b506107136122e2565b6040518082815260200191505060405180910390f35b34801561073557600080fd5b5061073e6123d7565b6040518080602001838152602001828103825284818151815260200191508051906020019080838360005b83811015610784578082015181840152602081019050610769565b50505050905090810190601f1680156107b15780820380516001836020036101000a031916815260200191505b50935050505060405180910390f35b3480156107cc57600080fd5b506107d5612575565b604051808273ffffffffffffffffffffffffffffffffffffffff1673ffffffffffffffffffffffffffffffffffffffff16815260200191505060405180910390f35b34801561082357600080fd5b5061087e600480360381019080803590602001908201803590602001908080601f016020809104026020016040519081016040528093929190818152602001838380828437820191505050505050919291929050505061259b565b005b34801561088c57600080fd5b50610895612a43565b604051808260038111156108a557fe5b60ff16815260200191505060405180910390f35b3480156108c557600080fd5b506108ce612b45565b604051808260038111156108de57fe5b60ff16815260200191505060405180910390f35b6108fa612b58565b005b34801561090857600080fd5b5061092760048036038101908080359060200190929190505050612bda565b6040518080602001828103825283818151815260200191508051906020019080838360005b8381101561096757808201518184015260208101905061094c565b50505050905090810190601f1680156109945780820380516001836020036101000a031916815260200191505b509250505060405180910390f35b3480156109ae57600080fd5b506109b7612c9c565b6040518082815260200191505060405180910390f35b3480156109d957600080fd5b506109e2612d91565b6040518082815260200191505060405180910390f35b348015610a0457600080fd5b50610a0d612d97565b604051808060200180602001838103835285818151815260200191508051906020019080838360005b83811015610a51578082015181840152602081019050610a36565b50505050905090810190601f168015610a7e5780820380516001836020036101000a031916815260200191505b50838103825284818151815260200191508051906020019080838360005b83811015610ab7578082015181840152602081019050610a9c565b50505050905090810190601f168015610ae45780820380516001836020036101000a031916815260200191505b5094505050505060405180910390f35b60008054600181600116156101000203166002900480601f016020809104026020016040519081016040528092919081815260200182805460018160011615610100020316600290048015610b8a5780601f10610b5f57610100808354040283529160200191610b8a565b820191906000526020600020905b815481529060010190602001808311610b6d57829003601f168201915b505050505081565b6000600680549050905090565b6002806003811115610bad57fe5b600b60009054906101000a900460ff166003811115610bc857fe5b141515610c63576040517f08c379a000000000000000000000000000000000000000000000000000000000815260040180806020018281038252602c8152602001807f4e6f207075656465206d6f6469666963617220656c2065737461646f2064652081526020017f6c6120766f74616369c3b36e000000000000000000000000000000000000000081525060400191505060405180910390fd5b600354610c6e612ede565b101515610d09576040517f08c379a00000000000000000000000000000000000000000000000000000000081526004018080602001828103825260288152602001807f536520706173c3b320656c207469656d706f20686162696c697461646f20706181526020017f726120766f74617200000000000000000000000000000000000000000000000081525060400191505060405180910390fd5b610d1233612ee6565b1515610dac576040517f08c379a00000000000000000000000000000000000000000000000000000000081526004018080602001828103825260238152602001807f4e6f20657374c3a1207265676973747261646f20656e206c6120766f7461636981526020017fc3b36e000000000000000000000000000000000000000000000000000000000081525060400191505060405180910390fd5b600860003373ffffffffffffffffffffffffffffffffffffffff1673ffffffffffffffffffffffffffffffffffffffff16815260200190815260200160002060010160009054906101000a900460ff16151515610e71576040517f08c379a00000000000000000000000000000000000000000000000000000000081526004018080602001828103825260148152602001807f596120766f74c3b3207072657669616d656e746500000000000000000000000081525060200191505060405180910390fd5b6001600860003373ffffffffffffffffffffffffffffffffffffffff1673ffffffffffffffffffffffffffffffffffffffff16815260200190815260200160002060010160006101000a81548160ff02191690831515021790555081600860003373ffffffffffffffffffffffffffffffffffffffff1673ffffffffffffffffffffffffffffffffffffffff16815260200190815260200160002060020181905550600860003373ffffffffffffffffffffffffffffffffffffffff1673ffffffffffffffffffffffffffffffffffffffff16815260200190815260200160002060030154600683815481101515610f6557fe5b9060005260206000209060020201600101600082825401925050819055506005600081548092919060010191905055505050565b6001806003811115610fa757fe5b600b60009054906101000a900460ff166003811115610fc257fe5b14151561105d576040517f08c379a000000000000000000000000000000000000000000000000000000000815260040180806020018281038252602c8152602001807f4e6f207075656465206d6f6469666963617220656c2065737461646f2064652081526020017f6c6120766f74616369c3b36e000000000000000000000000000000000000000081525060400191505060405180910390fd5b600260009054906101000a900473ffffffffffffffffffffffffffffffffffffffff1673ffffffffffffffffffffffffffffffffffffffff163373ffffffffffffffffffffffffffffffffffffffff16141515611148576040517f08c379a00000000000000000000000000000000000000000000000000000000081526004018080602001828103825260298152602001807f446562652073657220656c2061646d696e6973747261646f72206465206c612081526020017f766f74616369c3b36e000000000000000000000000000000000000000000000081525060400191505060405180910390fd5b60016006805490501115156111c5576040517f08c379a000000000000000000000000000000000000000000000000000000000815260040180806020018281038252601f8152602001807f44656265206861626572206dc3a17320646520756e2063616e64696461746f0081525060200191505060405180910390fd5b600660408051908101604052806040805190810160405280600e81526020017f566f746f20656e20626c616e636f00000000000000000000000000000000000081525081526020016000815250908060018154018082558091505090600182039060005260206000209060020201600090919290919091506000820151816000019080519060200190611259929190613056565b5060208201518160010155505050603c8202611273612ede565b016003819055506002600b60006101000a81548160ff0219169083600381111561129957fe5b02179055507f45ae8e5a983b405c50a629696a5fd665365e15f9c4fa5dbc947e035891e4dde16040518080602001828103825260128152602001807f566f74616369c3b36e20696e696369616461000000000000000000000000000081525060200191505060405180910390a15050565b60035481565b60068181548110151561131f57fe5b9060005260206000209060020201600091509050806000018054600181600116156101000203166002900480601f0160208091040260200160405190810160405280929190818152602001828054600181600116156101000203166002900480156113cb5780601f106113a0576101008083540402835291602001916113cb565b820191906000526020600020905b8154815290600101906020018083116113ae57829003601f168201915b5050505050908060010154905082565b60028060038111156113e957fe5b600b60009054906101000a900460ff16600381111561140457fe5b14151561149f576040517f08c379a000000000000000000000000000000000000000000000000000000000815260040180806020018281038252602c8152602001807f4e6f207075656465206d6f6469666963617220656c2065737461646f2064652081526020017f6c6120766f74616369c3b36e000000000000000000000000000000000000000081525060400191505060405180910390fd5b600260009054906101000a900473ffffffffffffffffffffffffffffffffffffffff1673ffffffffffffffffffffffffffffffffffffffff163373ffffffffffffffffffffffffffffffffffffffff1614151561158a576040517f08c379a00000000000000000000000000000000000000000000000000000000081526004018080602001828103825260298152602001807f446562652073657220656c2061646d696e6973747261646f72206465206c612081526020017f766f74616369c3b36e000000000000000000000000000000000000000000000081525060400191505060405180910390fd5b600354611595612ede565b1015151561160b576040517f08c379a000000000000000000000000000000000000000000000000000000000815260040180806020018281038252601d8152602001807f4c6120766f74616369c3b36e2061c3ba6e206e6f2066696e616c697a6100000081525060200191505060405180910390fd5b6003600b60006101000a81548160ff0219169083600381111561162a57fe5b02179055507f1c9db16d4f54d3a4e1f06123c554022a9f3f0357d24c7de3780857ddc4de92446040518080602001828103825260148152602001807f566f74616369c3b36e2066696e616c697a61646100000000000000000000000081525060200191505060405180910390a150565b600060038060038111156116aa57fe5b600b60009054906101000a900460ff1660038111156116c557fe5b141515611760576040517f08c379a000000000000000000000000000000000000000000000000000000000815260040180806020018281038252602c8152602001807f4e6f207075656465206d6f6469666963617220656c2065737461646f2064652081526020017f6c6120766f74616369c3b36e000000000000000000000000000000000000000081525060400191505060405180910390fd5b600454600554111515156117dc576040517f08c379a00000000000000000000000000000000000000000000000000000000081526004018080602001828103825260128152602001807f566f74616369c3b36e20636f727275707461000000000000000000000000000081525060200191505060405180910390fd5b600091505b6006805490508210156118fb577f156b5ffaa1a96772b4d324b6a0492ba5c51abe8a2818c38a0d409faddb63578c60068381548110151561181e57fe5b906000526020600020906002020160000160068481548110151561183e57fe5b90600052602060002090600202016001015460405180806020018381526020018281038252848181546001816001161561010002031660029004815260200191508054600181600116156101000203166002900480156118df5780601f106118b4576101008083540402835291602001916118df565b820191906000526020600020905b8154815290600101906020018083116118c257829003601f168201915b5050935050505060405180910390a181806001019250506117e1565b5050565b6000600260009054906101000a900473ffffffffffffffffffffffffffffffffffffffff1673ffffffffffffffffffffffffffffffffffffffff163373ffffffffffffffffffffffffffffffffffffffff161415156119c6576040517f08c379a00000000000000000000000000000000000000000000000000000000081526004018080602001828103825260068152602001807f447565c3b16f000000000000000000000000000000000000000000000000000081525060200191505060405180910390fd5b600090505b600780549050811015611a6d576007818154811015156119e757fe5b9060005260206000200160009054906101000a900473ffffffffffffffffffffffffffffffffffffffff1673ffffffffffffffffffffffffffffffffffffffff166108fc670de0b6b3a76400009081150290604051600060405180830381858888f19350505050158015611a5f573d6000803e3d6000fd5b5080806001019150506119cb565b50565b600781815481101515611a7f57fe5b906000526020600020016000915054906101000a900473ffffffffffffffffffffffffffffffffffffffff1681565b6000600860008373ffffffffffffffffffffffffffffffffffffffff1673ffffffffffffffffffffffffffffffffffffffff16815260200190815260200160002060010160009054906101000a900460ff169050919050565b6001806003811115611b1557fe5b600b60009054906101000a900460ff166003811115611b3057fe5b141515611bcb576040517f08c379a000000000000000000000000000000000000000000000000000000000815260040180806020018281038252602c8152602001807f4e6f207075656465206d6f6469666963617220656c2065737461646f2064652081526020017f6c6120766f74616369c3b36e000000000000000000000000000000000000000081525060400191505060405180910390fd5b600260009054906101000a900473ffffffffffffffffffffffffffffffffffffffff1673ffffffffffffffffffffffffffffffffffffffff163373ffffffffffffffffffffffffffffffffffffffff16141515611cb6576040517f08c379a00000000000000000000000000000000000000000000000000000000081526004018080602001828103825260298152602001807f446562652073657220656c2061646d696e6973747261646f72206465206c612081526020017f766f74616369c3b36e000000000000000000000000000000000000000000000081525060400191505060405180910390fd5b600660408051908101604052808481526020016000815250908060018154018082558091505090600182039060005260206000209060020201600090919290919091506000820151816000019080519060200190611d15929190613056565b50602082015181600101555050505050565b60606000611d3433612ee6565b1515611dce576040517f08c379a00000000000000000000000000000000000000000000000000000000081526004018080602001828103825260238152602001807f4e6f20657374c3a1207265676973747261646f20656e206c6120766f7461636981526020017fc3b36e000000000000000000000000000000000000000000000000000000000081525060400191505060405180910390fd5b600860003373ffffffffffffffffffffffffffffffffffffffff1673ffffffffffffffffffffffffffffffffffffffff16815260200190815260200160002060010160009054906101000a900460ff161515611eb8576040517f08c379a00000000000000000000000000000000000000000000000000000000081526004018080602001828103825260308152602001807f537520636572746966696361646f206573746172c3a1206c6973746f20756e6181526020017f2076657a206861796120766f7461646f0000000000000000000000000000000081525060400191505060405180910390fd5b60026003811115611ec557fe5b600b60009054906101000a900460ff166003811115611ee057fe5b1480611f105750600380811115611ef357fe5b600b60009054906101000a900460ff166003811115611f0e57fe5b145b1515611faa576040517f08c379a000000000000000000000000000000000000000000000000000000000815260040180806020018281038252602b8152602001807f45737065726520686173746120717565206c6120766f74616369c3b36e20686181526020017f796120696e69636961646f00000000000000000000000000000000000000000081525060400191505060405180910390fd5b600860003373ffffffffffffffffffffffffffffffffffffffff1673ffffffffffffffffffffffffffffffffffffffff168152602001908152602001600020600001600860003373ffffffffffffffffffffffffffffffffffffffff1673ffffffffffffffffffffffffffffffffffffffff16815260200190815260200160002060040154818054600181600116156101000203166002900480601f0160208091040260200160405190810160405280929190818152602001828054600181600116156101000203166002900480156120c45780601f10612099576101008083540402835291602001916120c4565b820191906000526020600020905b8154815290600101906020018083116120a757829003601f168201915b50505050509150915091509091565b60045481565b60006120fb3073ffffffffffffffffffffffffffffffffffffffff1631612f3c565b905090565b6000600381111561210d57fe5b600b60009054906101000a900460ff16600381111561212857fe5b14151561219d576040517f08c379a000000000000000000000000000000000000000000000000000000000815260040180806020018281038252601c8152602001807f566f74616369c3b36e20637265616461207072657669616d656e74650000000081525060200191505060405180910390fd5b33600260006101000a81548173ffffffffffffffffffffffffffffffffffffffff021916908373ffffffffffffffffffffffffffffffffffffffff16021790555081600090805190602001906121f49291906130d6565b50806001908051906020019061220b9291906130d6565b50600060048190555060006005819055506001600b60006101000a81548160ff0219169083600381111561223b57fe5b02179055505050565b60018054600181600116156101000203166002900480601f0160208091040260200160405190810160405280929190818152602001828054600181600116156101000203166002900480156122da5780601f106122af576101008083540402835291602001916122da565b820191906000526020600020905b8154815290600101906020018083116122bd57829003601f168201915b505050505081565b6000600260009054906101000a900473ffffffffffffffffffffffffffffffffffffffff1673ffffffffffffffffffffffffffffffffffffffff163373ffffffffffffffffffffffffffffffffffffffff161415156123cf576040517f08c379a00000000000000000000000000000000000000000000000000000000081526004018080602001828103825260298152602001807f446562652073657220656c2061646d696e6973747261646f72206465206c612081526020017f766f74616369c3b36e000000000000000000000000000000000000000000000081525060400191505060405180910390fd5b600454905090565b606060008060038060038111156123ea57fe5b600b60009054906101000a900460ff16600381111561240557fe5b1415156124a0576040517f08c379a000000000000000000000000000000000000000000000000000000000815260040180806020018281038252602c8152602001807f4e6f207075656465206d6f6469666963617220656c2065737461646f2064652081526020017f6c6120766f74616369c3b36e000000000000000000000000000000000000000081525060400191505060405180910390fd5b60066124aa612f59565b8154811015156124b657fe5b90600052602060002090600202019150816000018260010154818054600181600116156101000203166002900480601f0160208091040260200160405190810160405280929190818152602001828054600181600116156101000203166002900480156125645780601f1061253957610100808354040283529160200191612564565b820191906000526020600020905b81548152906001019060200180831161254757829003601f168201915b505050505091509350935050509091565b600260009054906101000a900473ffffffffffffffffffffffffffffffffffffffff1681565b600060028060038111156125ab57fe5b600b60009054906101000a900460ff1660038111156125c657fe5b141515612661576040517f08c379a000000000000000000000000000000000000000000000000000000000815260040180806020018281038252602c8152602001807f4e6f207075656465206d6f6469666963617220656c2065737461646f2064652081526020017f6c6120766f74616369c3b36e000000000000000000000000000000000000000081525060400191505060405180910390fd5b61266a33612ee6565b151515612705576040517f08c379a00000000000000000000000000000000000000000000000000000000081526004018080602001828103825260338152602001807f59612073652072656769737472c3b320756e207573756172696f20636f6e206581526020017f6c206164647265737320696e6772657361646f0000000000000000000000000081525060400191505060405180910390fd5b61270e83612fd4565b151515612783576040517f08c379a000000000000000000000000000000000000000000000000000000000815260040180806020018281038252601c8152602001807f456d61696c207265676973747261646f207072657669616d656e74650000000081525060200191505060405180910390fd5b600860003373ffffffffffffffffffffffffffffffffffffffff1673ffffffffffffffffffffffffffffffffffffffff16815260200190815260200160002060010160009054906101000a900460ff16151515612848576040517f08c379a000000000000000000000000000000000000000000000000000000000815260040180806020018281038252601c8152602001807f456c207573756172696f20766f74c3b3207072657669616d656e74650000000081525060200191505060405180910390fd5b600860003373ffffffffffffffffffffffffffffffffffffffff1673ffffffffffffffffffffffffffffffffffffffff1681526020019081526020016000209150828260000190805190602001906128a19291906130d6565b506001600960003373ffffffffffffffffffffffffffffffffffffffff1673ffffffffffffffffffffffffffffffffffffffff16815260200190815260200160002060006101000a81548160ff0219169083151502179055506001600a846040518082805190602001908083835b602083101515612934578051825260208201915060208101905060208303925061290f565b6001836020036101000a038019825116818451168082178552505050505050905001915050908152602001604051809103902060006101000a81548160ff0219169083151502179055506001600860003373ffffffffffffffffffffffffffffffffffffffff1673ffffffffffffffffffffffffffffffffffffffff1681526020019081526020016000206003018190555060073390806001815401808255809150509060018203906000526020600020016000909192909190916101000a81548173ffffffffffffffffffffffffffffffffffffffff021916908373ffffffffffffffffffffffffffffffffffffffff16021790555050600460008154809291906001019190505550505050565b6000600260009054906101000a900473ffffffffffffffffffffffffffffffffffffffff1673ffffffffffffffffffffffffffffffffffffffff163373ffffffffffffffffffffffffffffffffffffffff16141515612b30576040517f08c379a00000000000000000000000000000000000000000000000000000000081526004018080602001828103825260298152602001807f446562652073657220656c2061646d696e6973747261646f72206465206c612081526020017f766f74616369c3b36e000000000000000000000000000000000000000000000081525060400191505060405180910390fd5b600b60009054906101000a900460ff16905090565b600b60009054906101000a900460ff1681565b670de0b6b3a76400003410151515612bd8576040517f08c379a00000000000000000000000000000000000000000000000000000000081526004018080602001828103825260188152602001807f4e6f207365206c6f6772c3b320656c206465706f7369746f000000000000000081525060200191505060405180910390fd5b565b6060600682815481101515612beb57fe5b90600052602060002090600202016000018054600181600116156101000203166002900480601f016020809104026020016040519081016040528092919081815260200182805460018160011615610100020316600290048015612c905780601f10612c6557610100808354040283529160200191612c90565b820191906000526020600020905b815481529060010190602001808311612c7357829003601f168201915b50505050509050919050565b6000600260009054906101000a900473ffffffffffffffffffffffffffffffffffffffff1673ffffffffffffffffffffffffffffffffffffffff163373ffffffffffffffffffffffffffffffffffffffff16141515612d89576040517f08c379a00000000000000000000000000000000000000000000000000000000081526004018080602001828103825260298152602001807f446562652073657220656c2061646d696e6973747261646f72206465206c612081526020017f766f74616369c3b36e000000000000000000000000000000000000000000000081525060400191505060405180910390fd5b600554905090565b60055481565b60608060006001818054600181600116156101000203166002900480601f016020809104026020016040519081016040528092919081815260200182805460018160011615610100020316600290048015612e335780601f10612e0857610100808354040283529160200191612e33565b820191906000526020600020905b815481529060010190602001808311612e1657829003601f168201915b50505050509150808054600181600116156101000203166002900480601f016020809104026020016040519081016040528092919081815260200182805460018160011615610100020316600290048015612ecf5780601f10612ea457610100808354040283529160200191612ecf565b820191906000526020600020905b815481529060010190602001808311612eb257829003601f168201915b50505050509050915091509091565b600042905090565b6000600960008373ffffffffffffffffffffffffffffffffffffffff1673ffffffffffffffffffffffffffffffffffffffff16815260200190815260200160002060009054906101000a900460ff169050919050565b6000670de0b6b3a764000082811515612f5157fe5b049050919050565b6000806000809150600090505b600680549050811015612fcf5781600682815481101515612f8357fe5b9060005260206000209060020201600101541115612fc257600681815481101515612faa57fe5b90600052602060002090600202016001015491508092505b8080600101915050612f66565b505090565b6000600a826040518082805190602001908083835b60208310151561300e5780518252602082019150602081019050602083039250612fe9565b6001836020036101000a038019825116818451168082178552505050505050905001915050908152602001604051809103902060009054906101000a900460ff169050919050565b828054600181600116156101000203166002900490600052602060002090601f016020900481019282601f1061309757805160ff19168380011785556130c5565b828001600101855582156130c5579182015b828111156130c45782518255916020019190600101906130a9565b5b5090506130d29190613156565b5090565b828054600181600116156101000203166002900490600052602060002090601f016020900481019282601f1061311757805160ff1916838001178555613145565b82800160010185558215613145579182015b82811115613144578251825591602001919060010190613129565b5b5090506131529190613156565b5090565b61317891905b8082111561317457600081600090555060010161315c565b5090565b905600a165627a7a72305820203ad442b8c83c44af7f35c669c22399c475e12014f838a6f1f9e4e8cd5273da0029",
  "source": "pragma solidity ^0.4.24;\r\n\r\n\r\n/**\r\n * @title Ballot.sol: Smart Contract de eleccin de Representante Estudiantil\r\n * @author Camilo Andrs Rodrguez Burgos\r\n * @author Hector Oswaldo Franco Msmela\r\n * @notice Smart Contract de una votacin de Representante\r\n           Estudiantil de la Universidad Piloto de Colombia\r\n */\r\n\r\ncontract Ballot {\r\n    /**\r\n     * @dev Candidate: estructura\r\n     */\r\n    struct Candidate {\r\n        string name;\r\n        uint256 voteCount;\r\n    }\r\n\r\n    /**\r\n     * @dev Voter: estructura\r\n     */\r\n    struct Voter {\r\n        string email;\r\n        // Informacin de la votacin\r\n        bool voted;\r\n        uint256 candidateIndex;\r\n        uint256 weight;\r\n        uint256 voteTimestamp;\r\n    }\r\n\r\n    /**\r\n     * @dev atributos del contrato\r\n     */\r\n    string public name;\r\n    string public proposal;\r\n    address public ballotAdmin;\r\n    uint256 public ballotEnd;\r\n    uint256 public totalVoters;\r\n    uint256 public totalDoneVotes;\r\n\r\n    Candidate[] public candidates;\r\n    address[] public votersAddress;\r\n\r\n    /**\r\n     * @dev Mappings verificadores de los voters\r\n     */\r\n    mapping(address => Voter) private voters;\r\n    mapping(address => bool) private addedVoters;\r\n    mapping(string => bool) private addedEmail;\r\n\r\n    enum State {Initial, Created, Voting, Ended}\r\n\r\n    State public state;\r\n\r\n    /**\r\n     * @dev Eventos del contrato\r\n     */\r\n    event ElectionResult(string name, uint256 voteCount);\r\n    event voterAdded(string voterEmail, address voterAddress);\r\n    event voteStarted(string started);\r\n    event voteEnded(string ended);\r\n    event voteDone(address voter);\r\n    event showWinner(string, uint256 votes);\r\n    event showCertificate(string certificate, uint256 timestamp);\r\n    event showBallotInfo(string name, string proposal);\r\n\r\n    /**\r\n     * @dev createBallot()\r\n     * @param _name name of the ballot\r\n     * @param _proposal proposal of the ballot\r\n     */\r\n    function createBallot(string memory _name, string memory _proposal) public {\r\n        require(state == State.Initial, \"Votacin creada previamente\");\r\n        ballotAdmin = msg.sender;\r\n        name = _name;\r\n        proposal = _proposal;\r\n\r\n        totalVoters = 0;\r\n        totalDoneVotes = 0;\r\n        state = State.Created;\r\n    }\r\n\r\n    /**\r\n     * @dev funcin addCandidate()\r\n     * @param _name of the candidate\r\n     */\r\n\r\n    function addCandidate(string memory _name)\r\n        public\r\n        inState(State.Created)\r\n        checkBallotAdmin\r\n    {\r\n        candidates.push(Candidate(_name, 0));\r\n    }\r\n\r\n    /**\r\n     * @dev funcin addVoter()\r\n     * @param _email of the current logged user\r\n     */\r\n    function addVoter(string memory _email) public inState(State.Voting) {\r\n        require(!getAddedVoter(msg.sender),\"Ya se registr un usuario con el address ingresado\");\r\n\r\n        require(!getVoterEmail(_email), \"Email registrado previamente\");\r\n\r\n        require(!voters[msg.sender].voted, \"El usuario vot previamente\");\r\n\r\n        Voter storage voter = voters[msg.sender];\r\n        voter.email = _email;\r\n\r\n        addedVoters[msg.sender] = true;\r\n        addedEmail[_email] = true;\r\n\r\n        voters[msg.sender].weight = 1;\r\n\r\n        votersAddress.push(msg.sender);\r\n        totalVoters++;\r\n    }\r\n\r\n\r\n    /**\r\n     * @dev funcin startBallot()\r\n     * @param durationMinutes Minutes that will be available the contract\r\n     */\r\n    function startBallot(uint256 durationMinutes)\r\n        public\r\n        inState(State.Created)\r\n        checkBallotAdmin\r\n        checkCandidates\r\n    {\r\n        candidates.push(Candidate(\"Voto en blanco\", 0));\r\n        ballotEnd = getTimestamp() + (durationMinutes * 1 minutes);\r\n        state = State.Voting;\r\n        emit voteStarted(\"Votacin iniciada\");\r\n    }\r\n\r\n    /**\r\n     * @dev funcin doVote()\r\n     * @param candidateIndex index of the candidate in the ballot\r\n     */\r\n    function doVote(uint256 candidateIndex) public inState(State.Voting) {\r\n        require(\r\n            getTimestamp() < ballotEnd,\r\n            \"Se pas el tiempo habilitado para votar\"\r\n        );\r\n        require(getAddedVoter(msg.sender), \"No est registrado en la votacin\");\r\n        require(!voters[msg.sender].voted, \"Ya vot previamente\");\r\n\r\n        voters[msg.sender].voted = true;\r\n        voters[msg.sender].candidateIndex = candidateIndex;\r\n\r\n        candidates[candidateIndex].voteCount += voters[msg.sender].weight;\r\n        totalDoneVotes++;\r\n    }\r\n\r\n    /**\r\n     * @dev funcin endBallot()\r\n     */\r\n    function endBallot() public inState(State.Voting) checkBallotAdmin {\r\n        require(getTimestamp() >= ballotEnd, \"La votacin an no finaliza\");\r\n        state = State.Ended;\r\n        emit voteEnded(\"Votacin finalizada\");\r\n    }\r\n\r\n    /**\r\n     * @dev funcin getBallotState()\r\n     * @return State of the ballot\r\n     */\r\n    function getBallotState() public view checkBallotAdmin returns (State) {\r\n        return state;\r\n    }\r\n\r\n    /**\r\n     * @dev Calls getWinner() function to get the index of the winner\r\n     * @return tuple(string name of the winner, uint256 voteCount)\r\n     */\r\n    function winnerCandidate()\r\n        public\r\n        view\r\n        inState(State.Ended)\r\n        returns (string memory, uint256)\r\n    {\r\n        Candidate storage winner = candidates[getWinner()];\r\n        return (winner.name, winner.voteCount);\r\n    }\r\n\r\n    /**\r\n     * @dev generates the voter certificate\r\n     */\r\n    function generateCertificate()\r\n        public\r\n        view\r\n        returns (string memory, uint256)\r\n    {\r\n        require(getAddedVoter(msg.sender), \"No est registrado en la votacin\");\r\n        require(\r\n            voters[msg.sender].voted,\r\n            \"Su certificado estar listo una vez haya votado\"\r\n        );\r\n        require(\r\n            state == State.Voting || state == State.Ended,\r\n            \"Espere hasta que la votacin haya iniciado\"\r\n        );\r\n\r\n        return (voters[msg.sender].email, voters[msg.sender].voteTimestamp);\r\n    }\r\n\r\n    /**\r\n     * @dev getTotalVoters()\r\n     * @return uint256 the total registered voters\r\n     */\r\n    function getTotalVoters() public view checkBallotAdmin returns (uint256) {\r\n        return totalVoters;\r\n    }\r\n\r\n        /**\r\n     * @dev getTotalDoneVotes()\r\n     * @return uint256 the total votes done\r\n     */\r\n    function getTotalDoneVotes() public view checkBallotAdmin returns (uint256) {\r\n        return totalDoneVotes;\r\n    }\r\n\r\n    /**\r\n     * @dev getFinalResult()\r\n     */\r\n    function getFinalResult() public inState(State.Ended) {\r\n        require(totalDoneVotes <= totalVoters, \"Votacin corrupta\");\r\n\r\n        for (uint256 i = 0; i < candidates.length; i++) {\r\n            emit ElectionResult(candidates[i].name, candidates[i].voteCount);\r\n        }\r\n    }\r\n\r\n    /**\r\n     * @dev getAddedVoter()\r\n     * @param voterAddress address of the voter\r\n     */\r\n\r\n    function getAddedVoter(address voterAddress) private view returns (bool) {\r\n        return addedVoters[voterAddress];\r\n    }\r\n\r\n    function getVoterState(address voterAddress) public view returns(bool) {\r\n        return voters[voterAddress].voted;\r\n    }\r\n\r\n    /**\r\n     * @dev getVoterEmail()\r\n     * @param voterEmail email of the voter\r\n     */\r\n    function getVoterEmail(string memory voterEmail)\r\n        private\r\n        view\r\n        returns (bool)\r\n    {\r\n        return addedEmail[voterEmail];\r\n    }\r\n\r\n    /**\r\n     * @dev getTotalCandidates()\r\n     * @return uint256\r\n     */\r\n\r\n    function getTotalCandidates() public view returns (uint256) {\r\n        return candidates.length;\r\n    }\r\n\r\n    function getBallotInfo()\r\n        public\r\n        view\r\n        returns (string memory, string memory)\r\n    {\r\n        return (name, proposal);\r\n    }\r\n\r\n    /**\r\n     * @dev getCandidateName()\r\n     * @return string candidateName\r\n     */\r\n    function getCandidateName(uint256 candidateIndex)\r\n        public\r\n        view\r\n        returns (string memory)\r\n    {\r\n        return candidates[candidateIndex].name;\r\n    }\r\n\r\n    function getContractBalance() public view returns (uint256) {\r\n        return toEther(address(this).balance);\r\n    }\r\n\r\n    function deposit() public payable {\r\n        require(msg.value >= 1 ether, \"No se logr el deposito\");\r\n    }\r\n\r\n    function withdraw()public {\r\n        require(msg.sender == ballotAdmin, \"Dueo\");\r\n        for (uint256 i = 0; i < votersAddress.length; i++) {\r\n             votersAddress[i].transfer(1 ether);\r\n        }\r\n    }\r\n\r\n    /**\r\n     * @dev getWinner(): helper function\r\n     * @return winningCandidate (the index of the winner candidate)\r\n     */\r\n\r\n    function getWinner() private view returns (uint256 winningCandidate) {\r\n        uint256 winningVoteCount = 0;\r\n        for (uint256 i = 0; i < candidates.length; i++) {\r\n            if (candidates[i].voteCount > winningVoteCount) {\r\n                winningVoteCount = candidates[i].voteCount;\r\n                winningCandidate = i;\r\n            }\r\n        }\r\n    }\r\n\r\n    function getTimestamp() private view returns (uint256) {\r\n        return now;\r\n    }\r\n\r\n    function toEther(uint256 balance) private pure returns (uint256) {\r\n        return (balance / 1e18);\r\n    }\r\n\r\n    /**\r\n     * @dev Modifier: verifies the correct state of the Ballot\r\n     * @param _state of the ballot\r\n     */\r\n    modifier inState(State _state) {\r\n        require(state == _state, \"No puede modificar el estado de la votacin\");\r\n        _;\r\n    }\r\n\r\n    /**\r\n     * @dev Modifier: verefies that the admin of the Ballot is the same that the one who created the contract\r\n     */\r\n    modifier checkBallotAdmin() {\r\n        require(\r\n            msg.sender == ballotAdmin,\r\n            \"Debe ser el administrador de la votacin\"\r\n        );\r\n        _;\r\n    }\r\n\r\n    /**\r\n     * @dev Modifier: verifies the candidates array is not empty\r\n     */\r\n    modifier checkCandidates() {\r\n        require(candidates.length > 1, \"Debe haber ms de un candidato\");\r\n        _;\r\n    }\r\n}\r\n",
  "sourcePath": "C:\\Users\\HectorDev\\Documents\\VotationUPC\\contracts\\Ballot.sol",
  "compiler": {
    "name": "solc",
    "version": "0.4.25+commit.59dbf8f1.Emscripten.clang"
  },
  "schemaVersion": "2.0.2",
  "updatedAt": "2020-05-11T04:04:23.003Z"
}