{
  "contractName": "Ballot",
  "abi": [
    {
      "constant": true,
      "inputs": [],
      "name": "name",
      "outputs": [
        {
          "name": "",
          "type": "string"
        }
      ],
      "payable": false,
      "stateMutability": "view",
      "type": "function"
    },
    {
      "constant": true,
      "inputs": [],
      "name": "ballotEnd",
      "outputs": [
        {
          "name": "",
          "type": "uint256"
        }
      ],
      "payable": false,
      "stateMutability": "view",
      "type": "function"
    },
    {
      "constant": true,
      "inputs": [
        {
          "name": "",
          "type": "uint256"
        }
      ],
      "name": "candidates",
      "outputs": [
        {
          "name": "name",
          "type": "string"
        },
        {
          "name": "voteCount",
          "type": "uint256"
        }
      ],
      "payable": false,
      "stateMutability": "view",
      "type": "function"
    },
    {
      "constant": true,
      "inputs": [
        {
          "name": "",
          "type": "uint256"
        }
      ],
      "name": "votersAddress",
      "outputs": [
        {
          "name": "",
          "type": "address"
        }
      ],
      "payable": false,
      "stateMutability": "view",
      "type": "function"
    },
    {
      "constant": true,
      "inputs": [],
      "name": "totalVoters",
      "outputs": [
        {
          "name": "",
          "type": "uint256"
        }
      ],
      "payable": false,
      "stateMutability": "view",
      "type": "function"
    },
    {
      "constant": true,
      "inputs": [],
      "name": "proposal",
      "outputs": [
        {
          "name": "",
          "type": "string"
        }
      ],
      "payable": false,
      "stateMutability": "view",
      "type": "function"
    },
    {
      "constant": true,
      "inputs": [],
      "name": "ballotAdmin",
      "outputs": [
        {
          "name": "",
          "type": "address"
        }
      ],
      "payable": false,
      "stateMutability": "view",
      "type": "function"
    },
    {
      "constant": true,
      "inputs": [],
      "name": "state",
      "outputs": [
        {
          "name": "",
          "type": "uint8"
        }
      ],
      "payable": false,
      "stateMutability": "view",
      "type": "function"
    },
    {
      "constant": true,
      "inputs": [
        {
          "name": "",
          "type": "uint256"
        }
      ],
      "name": "votesDone",
      "outputs": [
        {
          "name": "",
          "type": "uint256"
        }
      ],
      "payable": false,
      "stateMutability": "view",
      "type": "function"
    },
    {
      "constant": true,
      "inputs": [],
      "name": "totalDoneVotes",
      "outputs": [
        {
          "name": "",
          "type": "uint256"
        }
      ],
      "payable": false,
      "stateMutability": "view",
      "type": "function"
    },
    {
      "anonymous": false,
      "inputs": [
        {
          "indexed": false,
          "name": "name",
          "type": "string"
        },
        {
          "indexed": false,
          "name": "voteCount",
          "type": "uint256"
        }
      ],
      "name": "ElectionResult",
      "type": "event"
    },
    {
      "anonymous": false,
      "inputs": [
        {
          "indexed": false,
          "name": "voterEmail",
          "type": "string"
        },
        {
          "indexed": false,
          "name": "voterAddress",
          "type": "address"
        }
      ],
      "name": "voterAdded",
      "type": "event"
    },
    {
      "anonymous": false,
      "inputs": [
        {
          "indexed": false,
          "name": "started",
          "type": "string"
        }
      ],
      "name": "voteStarted",
      "type": "event"
    },
    {
      "anonymous": false,
      "inputs": [
        {
          "indexed": false,
          "name": "ended",
          "type": "string"
        }
      ],
      "name": "voteEnded",
      "type": "event"
    },
    {
      "anonymous": false,
      "inputs": [
        {
          "indexed": false,
          "name": "voter",
          "type": "address"
        }
      ],
      "name": "voteDone",
      "type": "event"
    },
    {
      "anonymous": false,
      "inputs": [
        {
          "indexed": false,
          "name": "",
          "type": "string"
        },
        {
          "indexed": false,
          "name": "votes",
          "type": "uint256"
        }
      ],
      "name": "showWinner",
      "type": "event"
    },
    {
      "anonymous": false,
      "inputs": [
        {
          "indexed": false,
          "name": "certificate",
          "type": "string"
        },
        {
          "indexed": false,
          "name": "timestamp",
          "type": "uint256"
        }
      ],
      "name": "showCertificate",
      "type": "event"
    },
    {
      "anonymous": false,
      "inputs": [
        {
          "indexed": false,
          "name": "name",
          "type": "string"
        },
        {
          "indexed": false,
          "name": "proposal",
          "type": "string"
        }
      ],
      "name": "showBallotInfo",
      "type": "event"
    },
    {
      "constant": false,
      "inputs": [
        {
          "name": "_name",
          "type": "string"
        },
        {
          "name": "_proposal",
          "type": "string"
        }
      ],
      "name": "createBallot",
      "outputs": [],
      "payable": false,
      "stateMutability": "nonpayable",
      "type": "function"
    },
    {
      "constant": false,
      "inputs": [
        {
          "name": "_name",
          "type": "string"
        }
      ],
      "name": "addCandidate",
      "outputs": [],
      "payable": false,
      "stateMutability": "nonpayable",
      "type": "function"
    },
    {
      "constant": false,
      "inputs": [
        {
          "name": "_email",
          "type": "string"
        }
      ],
      "name": "addVoter",
      "outputs": [],
      "payable": false,
      "stateMutability": "nonpayable",
      "type": "function"
    },
    {
      "constant": false,
      "inputs": [
        {
          "name": "durationMinutes",
          "type": "uint256"
        }
      ],
      "name": "startBallot",
      "outputs": [],
      "payable": false,
      "stateMutability": "nonpayable",
      "type": "function"
    },
    {
      "constant": false,
      "inputs": [
        {
          "name": "candidateIndex",
          "type": "uint256"
        }
      ],
      "name": "doVote",
      "outputs": [],
      "payable": false,
      "stateMutability": "nonpayable",
      "type": "function"
    },
    {
      "constant": false,
      "inputs": [],
      "name": "endBallot",
      "outputs": [],
      "payable": false,
      "stateMutability": "nonpayable",
      "type": "function"
    },
    {
      "constant": true,
      "inputs": [],
      "name": "getBallotState",
      "outputs": [
        {
          "name": "",
          "type": "uint8"
        }
      ],
      "payable": false,
      "stateMutability": "view",
      "type": "function"
    },
    {
      "constant": true,
      "inputs": [],
      "name": "winnerCandidate",
      "outputs": [
        {
          "name": "",
          "type": "string"
        },
        {
          "name": "",
          "type": "uint256"
        }
      ],
      "payable": false,
      "stateMutability": "view",
      "type": "function"
    },
    {
      "constant": true,
      "inputs": [],
      "name": "generateCertificate",
      "outputs": [
        {
          "name": "",
          "type": "string"
        },
        {
          "name": "",
          "type": "uint256"
        }
      ],
      "payable": false,
      "stateMutability": "view",
      "type": "function"
    },
    {
      "constant": true,
      "inputs": [],
      "name": "getTotalVoters",
      "outputs": [
        {
          "name": "",
          "type": "uint256"
        }
      ],
      "payable": false,
      "stateMutability": "view",
      "type": "function"
    },
    {
      "constant": true,
      "inputs": [],
      "name": "getTotalDoneVotes",
      "outputs": [
        {
          "name": "",
          "type": "uint256"
        }
      ],
      "payable": false,
      "stateMutability": "view",
      "type": "function"
    },
    {
      "constant": false,
      "inputs": [],
      "name": "getFinalResult",
      "outputs": [],
      "payable": false,
      "stateMutability": "nonpayable",
      "type": "function"
    },
    {
      "constant": true,
      "inputs": [
        {
          "name": "voterAddress",
          "type": "address"
        }
      ],
      "name": "getVoterState",
      "outputs": [
        {
          "name": "",
          "type": "bool"
        }
      ],
      "payable": false,
      "stateMutability": "view",
      "type": "function"
    },
    {
      "constant": true,
      "inputs": [],
      "name": "getTotalCandidates",
      "outputs": [
        {
          "name": "",
          "type": "uint256"
        }
      ],
      "payable": false,
      "stateMutability": "view",
      "type": "function"
    },
    {
      "constant": true,
      "inputs": [],
      "name": "getBallotInfo",
      "outputs": [
        {
          "name": "",
          "type": "string"
        },
        {
          "name": "",
          "type": "string"
        }
      ],
      "payable": false,
      "stateMutability": "view",
      "type": "function"
    },
    {
      "constant": true,
      "inputs": [
        {
          "name": "candidateIndex",
          "type": "uint256"
        }
      ],
      "name": "getCandidateName",
      "outputs": [
        {
          "name": "",
          "type": "string"
        }
      ],
      "payable": false,
      "stateMutability": "view",
      "type": "function"
    },
    {
      "constant": true,
      "inputs": [],
      "name": "getContractBalance",
      "outputs": [
        {
          "name": "",
          "type": "uint256"
        }
      ],
      "payable": false,
      "stateMutability": "view",
      "type": "function"
    },
    {
      "constant": false,
      "inputs": [],
      "name": "deposit",
      "outputs": [],
      "payable": true,
      "stateMutability": "payable",
      "type": "function"
    },
    {
      "constant": false,
      "inputs": [],
      "name": "withdraw",
      "outputs": [],
      "payable": false,
      "stateMutability": "nonpayable",
      "type": "function"
    }
  ],
  "bytecode": "0x608060405234801561001057600080fd5b50613214806100206000396000f300608060405260043610610175576000357c0100000000000000000000000000000000000000000000000000000000900463ffffffff16806306fdde031461017a5780630deb56ab1461020a578063124258c61461023557806318034fe4146102625780633400ba111461028f5780633477ee2e146102ba5780633a47cb60146103675780633c6e53101461037e5780633ccfd60b1461039557806343242daa146103ac57806345a5c08914610419578063462e91ec146104745780635f180fa9146104dd5780635f5300ff146105745780636f9fb98a1461059f5780636fa4f103146105ca578063753ec10314610679578063793cf21814610709578063a15148d114610734578063a8aa3b0e146107cb578063aca8489214610822578063bd6fb4371461088b578063c19d93fb146108c4578063d0e30db0146108fd578063dc22e52914610907578063e13804a714610948578063ea3b1bcf146109ee578063f48c31e914610a19578063f767b1ca14610a44575b600080fd5b34801561018657600080fd5b5061018f610b40565b6040518080602001828103825283818151815260200191508051906020019080838360005b838110156101cf5780820151818401526020810190506101b4565b50505050905090810190601f1680156101fc5780820380516001836020036101000a031916815260200191505b509250505060405180910390f35b34801561021657600080fd5b5061021f610bde565b6040518082815260200191505060405180910390f35b34801561024157600080fd5b5061026060048036038101908080359060200190929190505050610beb565b005b34801561026e57600080fd5b5061028d60048036038101908080359060200190929190505050610fff565b005b34801561029b57600080fd5b506102a4611370565b6040518082815260200191505060405180910390f35b3480156102c657600080fd5b506102e560048036038101908080359060200190929190505050611376565b6040518080602001838152602001828103825284818151815260200191508051906020019080838360005b8381101561032b578082015181840152602081019050610310565b50505050905090810190601f1680156103585780820380516001836020036101000a031916815260200191505b50935050505060405180910390f35b34801561037357600080fd5b5061037c611441565b005b34801561038a57600080fd5b50610393611700565b005b3480156103a157600080fd5b506103aa611965565b005b3480156103b857600080fd5b506103d760048036038101908080359060200190929190505050611ad6565b604051808273ffffffffffffffffffffffffffffffffffffffff1673ffffffffffffffffffffffffffffffffffffffff16815260200191505060405180910390f35b34801561042557600080fd5b5061045a600480360381019080803573ffffffffffffffffffffffffffffffffffffffff169060200190929190505050611b14565b604051808215151515815260200191505060405180910390f35b34801561048057600080fd5b506104db600480360381019080803590602001908201803590602001908080601f0160208091040260200160405190810160405280939291908181526020018383808284378201915050505050509192919290505050611b6d565b005b3480156104e957600080fd5b506104f2611d8d565b6040518080602001838152602001828103825284818151815260200191508051906020019080838360005b8381101561053857808201518184015260208101905061051d565b50505050905090810190601f1680156105655780820380516001836020036101000a031916815260200191505b50935050505060405180910390f35b34801561058057600080fd5b50610589612139565b6040518082815260200191505060405180910390f35b3480156105ab57600080fd5b506105b461213f565b6040518082815260200191505060405180910390f35b3480156105d657600080fd5b50610677600480360381019080803590602001908201803590602001908080601f0160208091040260200160405190810160405280939291908181526020018383808284378201915050505050509192919290803590602001908201803590602001908080601f0160208091040260200160405190810160405280939291908181526020018383808284378201915050505050509192919290505050612166565b005b34801561068557600080fd5b5061068e61229a565b6040518080602001828103825283818151815260200191508051906020019080838360005b838110156106ce5780820151818401526020810190506106b3565b50505050905090810190601f1680156106fb5780820380516001836020036101000a031916815260200191505b509250505060405180910390f35b34801561071557600080fd5b5061071e612338565b6040518082815260200191505060405180910390f35b34801561074057600080fd5b50610749612430565b6040518080602001838152602001828103825284818151815260200191508051906020019080838360005b8381101561078f578082015181840152602081019050610774565b50505050905090810190601f1680156107bc5780820380516001836020036101000a031916815260200191505b50935050505060405180910390f35b3480156107d757600080fd5b506107e06125ce565b604051808273ffffffffffffffffffffffffffffffffffffffff1673ffffffffffffffffffffffffffffffffffffffff16815260200191505060405180910390f35b34801561082e57600080fd5b50610889600480360381019080803590602001908201803590602001908080601f01602080910402602001604051908101604052809392919081815260200183838082843782019150505050505091929192905050506125f4565b005b34801561089757600080fd5b506108a0612a8a565b604051808260038111156108b057fe5b60ff16815260200191505060405180910390f35b3480156108d057600080fd5b506108d9612b8c565b604051808260038111156108e957fe5b60ff16815260200191505060405180910390f35b610905612b9f565b005b34801561091357600080fd5b5061093260048036038101908080359060200190929190505050612c21565b6040518082815260200191505060405180910390f35b34801561095457600080fd5b5061097360048036038101908080359060200190929190505050612c44565b6040518080602001828103825283818151815260200191508051906020019080838360005b838110156109b3578082015181840152602081019050610998565b50505050905090810190601f1680156109e05780820380516001836020036101000a031916815260200191505b509250505060405180910390f35b3480156109fa57600080fd5b50610a03612d06565b6040518082815260200191505060405180910390f35b348015610a2557600080fd5b50610a2e612dfe565b6040518082815260200191505060405180910390f35b348015610a5057600080fd5b50610a59612e04565b604051808060200180602001838103835285818151815260200191508051906020019080838360005b83811015610a9d578082015181840152602081019050610a82565b50505050905090810190601f168015610aca5780820380516001836020036101000a031916815260200191505b50838103825284818151815260200191508051906020019080838360005b83811015610b03578082015181840152602081019050610ae8565b50505050905090810190601f168015610b305780820380516001836020036101000a031916815260200191505b5094505050505060405180910390f35b60008054600181600116156101000203166002900480601f016020809104026020016040519081016040528092919081815260200182805460018160011615610100020316600290048015610bd65780601f10610bab57610100808354040283529160200191610bd6565b820191906000526020600020905b815481529060010190602001808311610bb957829003601f168201915b505050505081565b6000600680549050905090565b6002806003811115610bf957fe5b600c60009054906101000a900460ff166003811115610c1457fe5b141515610caf576040517f08c379a000000000000000000000000000000000000000000000000000000000815260040180806020018281038252602c8152602001807f4e6f207075656465206d6f6469666963617220656c2065737461646f2064652081526020017f6c6120766f74616369c3b36e000000000000000000000000000000000000000081525060400191505060405180910390fd5b600354610cba612f4b565b101515610d55576040517f08c379a00000000000000000000000000000000000000000000000000000000081526004018080602001828103825260288152602001807f536520706173c3b320656c207469656d706f20686162696c697461646f20706181526020017f726120766f74617200000000000000000000000000000000000000000000000081525060400191505060405180910390fd5b610d5e33612f53565b1515610df8576040517f08c379a00000000000000000000000000000000000000000000000000000000081526004018080602001828103825260238152602001807f4e6f20657374c3a1207265676973747261646f20656e206c6120766f7461636981526020017fc3b36e000000000000000000000000000000000000000000000000000000000081525060400191505060405180910390fd5b600960003373ffffffffffffffffffffffffffffffffffffffff1673ffffffffffffffffffffffffffffffffffffffff16815260200190815260200160002060010160009054906101000a900460ff16151515610ebd576040517f08c379a00000000000000000000000000000000000000000000000000000000081526004018080602001828103825260148152602001807f596120766f74c3b3207072657669616d656e746500000000000000000000000081525060200191505060405180910390fd5b6001600960003373ffffffffffffffffffffffffffffffffffffffff1673ffffffffffffffffffffffffffffffffffffffff16815260200190815260200160002060010160006101000a81548160ff02191690831515021790555081600960003373ffffffffffffffffffffffffffffffffffffffff1673ffffffffffffffffffffffffffffffffffffffff16815260200190815260200160002060020181905550600960003373ffffffffffffffffffffffffffffffffffffffff1673ffffffffffffffffffffffffffffffffffffffff16815260200190815260200160002060030154600683815481101515610fb157fe5b90600052602060002090600202016001016000828254019250508190555060088290806001815401808255809150509060018203906000526020600020016000909192909190915055505050565b600180600381111561100d57fe5b600c60009054906101000a900460ff16600381111561102857fe5b1415156110c3576040517f08c379a000000000000000000000000000000000000000000000000000000000815260040180806020018281038252602c8152602001807f4e6f207075656465206d6f6469666963617220656c2065737461646f2064652081526020017f6c6120766f74616369c3b36e000000000000000000000000000000000000000081525060400191505060405180910390fd5b600260009054906101000a900473ffffffffffffffffffffffffffffffffffffffff1673ffffffffffffffffffffffffffffffffffffffff163373ffffffffffffffffffffffffffffffffffffffff161415156111ae576040517f08c379a00000000000000000000000000000000000000000000000000000000081526004018080602001828103825260298152602001807f446562652073657220656c2061646d696e6973747261646f72206465206c612081526020017f766f74616369c3b36e000000000000000000000000000000000000000000000081525060400191505060405180910390fd5b600160068054905011151561122b576040517f08c379a000000000000000000000000000000000000000000000000000000000815260040180806020018281038252601f8152602001807f44656265206861626572206dc3a17320646520756e2063616e64696461746f0081525060200191505060405180910390fd5b600660408051908101604052806040805190810160405280600e81526020017f566f746f20656e20626c616e636f000000000000000000000000000000000000815250815260200160008152509080600181540180825580915050906001820390600052602060002090600202016000909192909190915060008201518160000190805190602001906112bf9291906130c3565b5060208201518160010155505050603c82026112d9612f4b565b016003819055506002600c60006101000a81548160ff021916908360038111156112ff57fe5b02179055507f45ae8e5a983b405c50a629696a5fd665365e15f9c4fa5dbc947e035891e4dde16040518080602001828103825260128152602001807f566f74616369c3b36e20696e696369616461000000000000000000000000000081525060200191505060405180910390a15050565b60035481565b60068181548110151561138557fe5b9060005260206000209060020201600091509050806000018054600181600116156101000203166002900480601f0160208091040260200160405190810160405280929190818152602001828054600181600116156101000203166002900480156114315780601f1061140657610100808354040283529160200191611431565b820191906000526020600020905b81548152906001019060200180831161141457829003601f168201915b5050505050908060010154905082565b600280600381111561144f57fe5b600c60009054906101000a900460ff16600381111561146a57fe5b141515611505576040517f08c379a000000000000000000000000000000000000000000000000000000000815260040180806020018281038252602c8152602001807f4e6f207075656465206d6f6469666963617220656c2065737461646f2064652081526020017f6c6120766f74616369c3b36e000000000000000000000000000000000000000081525060400191505060405180910390fd5b600260009054906101000a900473ffffffffffffffffffffffffffffffffffffffff1673ffffffffffffffffffffffffffffffffffffffff163373ffffffffffffffffffffffffffffffffffffffff161415156115f0576040517f08c379a00000000000000000000000000000000000000000000000000000000081526004018080602001828103825260298152602001807f446562652073657220656c2061646d696e6973747261646f72206465206c612081526020017f766f74616369c3b36e000000000000000000000000000000000000000000000081525060400191505060405180910390fd5b6003546115fb612f4b565b10151515611671576040517f08c379a000000000000000000000000000000000000000000000000000000000815260040180806020018281038252601d8152602001807f4c6120766f74616369c3b36e2061c3ba6e206e6f2066696e616c697a6100000081525060200191505060405180910390fd5b6003600c60006101000a81548160ff0219169083600381111561169057fe5b02179055507f1c9db16d4f54d3a4e1f06123c554022a9f3f0357d24c7de3780857ddc4de92446040518080602001828103825260148152602001807f566f74616369c3b36e2066696e616c697a61646100000000000000000000000081525060200191505060405180910390a150565b6000600380600381111561171057fe5b600c60009054906101000a900460ff16600381111561172b57fe5b1415156117c6576040517f08c379a000000000000000000000000000000000000000000000000000000000815260040180806020018281038252602c8152602001807f4e6f207075656465206d6f6469666963617220656c2065737461646f2064652081526020017f6c6120766f74616369c3b36e000000000000000000000000000000000000000081525060400191505060405180910390fd5b60045460055411151515611842576040517f08c379a00000000000000000000000000000000000000000000000000000000081526004018080602001828103825260128152602001807f566f74616369c3b36e20636f727275707461000000000000000000000000000081525060200191505060405180910390fd5b600091505b600680549050821015611961577f156b5ffaa1a96772b4d324b6a0492ba5c51abe8a2818c38a0d409faddb63578c60068381548110151561188457fe5b90600052602060002090600202016000016006848154811015156118a457fe5b90600052602060002090600202016001015460405180806020018381526020018281038252848181546001816001161561010002031660029004815260200191508054600181600116156101000203166002900480156119455780601f1061191a57610100808354040283529160200191611945565b820191906000526020600020905b81548152906001019060200180831161192857829003601f168201915b5050935050505060405180910390a18180600101925050611847565b5050565b6000600260009054906101000a900473ffffffffffffffffffffffffffffffffffffffff1673ffffffffffffffffffffffffffffffffffffffff163373ffffffffffffffffffffffffffffffffffffffff16141515611a2c576040517f08c379a00000000000000000000000000000000000000000000000000000000081526004018080602001828103825260068152602001807f447565c3b16f000000000000000000000000000000000000000000000000000081525060200191505060405180910390fd5b600090505b600780549050811015611ad357600781815481101515611a4d57fe5b9060005260206000200160009054906101000a900473ffffffffffffffffffffffffffffffffffffffff1673ffffffffffffffffffffffffffffffffffffffff166108fc670de0b6b3a76400009081150290604051600060405180830381858888f19350505050158015611ac5573d6000803e3d6000fd5b508080600101915050611a31565b50565b600781815481101515611ae557fe5b906000526020600020016000915054906101000a900473ffffffffffffffffffffffffffffffffffffffff1681565b6000600960008373ffffffffffffffffffffffffffffffffffffffff1673ffffffffffffffffffffffffffffffffffffffff16815260200190815260200160002060010160009054906101000a900460ff169050919050565b6001806003811115611b7b57fe5b600c60009054906101000a900460ff166003811115611b9657fe5b141515611c31576040517f08c379a000000000000000000000000000000000000000000000000000000000815260040180806020018281038252602c8152602001807f4e6f207075656465206d6f6469666963617220656c2065737461646f2064652081526020017f6c6120766f74616369c3b36e000000000000000000000000000000000000000081525060400191505060405180910390fd5b600260009054906101000a900473ffffffffffffffffffffffffffffffffffffffff1673ffffffffffffffffffffffffffffffffffffffff163373ffffffffffffffffffffffffffffffffffffffff16141515611d1c576040517f08c379a00000000000000000000000000000000000000000000000000000000081526004018080602001828103825260298152602001807f446562652073657220656c2061646d696e6973747261646f72206465206c612081526020017f766f74616369c3b36e000000000000000000000000000000000000000000000081525060400191505060405180910390fd5b600660408051908101604052808481526020016000815250908060018154018082558091505090600182039060005260206000209060020201600090919290919091506000820151816000019080519060200190611d7b9291906130c3565b50602082015181600101555050505050565b60606000611d9a33612f53565b1515611e34576040517f08c379a00000000000000000000000000000000000000000000000000000000081526004018080602001828103825260238152602001807f4e6f20657374c3a1207265676973747261646f20656e206c6120766f7461636981526020017fc3b36e000000000000000000000000000000000000000000000000000000000081525060400191505060405180910390fd5b600960003373ffffffffffffffffffffffffffffffffffffffff1673ffffffffffffffffffffffffffffffffffffffff16815260200190815260200160002060010160009054906101000a900460ff161515611f1e576040517f08c379a00000000000000000000000000000000000000000000000000000000081526004018080602001828103825260308152602001807f537520636572746966696361646f206573746172c3a1206c6973746f20756e6181526020017f2076657a206861796120766f7461646f0000000000000000000000000000000081525060400191505060405180910390fd5b60026003811115611f2b57fe5b600c60009054906101000a900460ff166003811115611f4657fe5b1480611f765750600380811115611f5957fe5b600c60009054906101000a900460ff166003811115611f7457fe5b145b1515612010576040517f08c379a000000000000000000000000000000000000000000000000000000000815260040180806020018281038252602b8152602001807f45737065726520686173746120717565206c6120766f74616369c3b36e20686181526020017f796120696e69636961646f00000000000000000000000000000000000000000081525060400191505060405180910390fd5b600960003373ffffffffffffffffffffffffffffffffffffffff1673ffffffffffffffffffffffffffffffffffffffff168152602001908152602001600020600001600960003373ffffffffffffffffffffffffffffffffffffffff1673ffffffffffffffffffffffffffffffffffffffff16815260200190815260200160002060040154818054600181600116156101000203166002900480601f01602080910402602001604051908101604052809291908181526020018280546001816001161561010002031660029004801561212a5780601f106120ff5761010080835404028352916020019161212a565b820191906000526020600020905b81548152906001019060200180831161210d57829003601f168201915b50505050509150915091509091565b60045481565b60006121613073ffffffffffffffffffffffffffffffffffffffff1631612fa9565b905090565b6000600381111561217357fe5b600c60009054906101000a900460ff16600381111561218e57fe5b141515612203576040517f08c379a000000000000000000000000000000000000000000000000000000000815260040180806020018281038252601c8152602001807f566f74616369c3b36e20637265616461207072657669616d656e74650000000081525060200191505060405180910390fd5b33600260006101000a81548173ffffffffffffffffffffffffffffffffffffffff021916908373ffffffffffffffffffffffffffffffffffffffff160217905550816000908051906020019061225a929190613143565b508060019080519060200190612271929190613143565b506001600c60006101000a81548160ff0219169083600381111561229157fe5b02179055505050565b60018054600181600116156101000203166002900480601f0160208091040260200160405190810160405280929190818152602001828054600181600116156101000203166002900480156123305780601f1061230557610100808354040283529160200191612330565b820191906000526020600020905b81548152906001019060200180831161231357829003601f168201915b505050505081565b6000600260009054906101000a900473ffffffffffffffffffffffffffffffffffffffff1673ffffffffffffffffffffffffffffffffffffffff163373ffffffffffffffffffffffffffffffffffffffff16141515612425576040517f08c379a00000000000000000000000000000000000000000000000000000000081526004018080602001828103825260298152602001807f446562652073657220656c2061646d696e6973747261646f72206465206c612081526020017f766f74616369c3b36e000000000000000000000000000000000000000000000081525060400191505060405180910390fd5b600780549050905090565b6060600080600380600381111561244357fe5b600c60009054906101000a900460ff16600381111561245e57fe5b1415156124f9576040517f08c379a000000000000000000000000000000000000000000000000000000000815260040180806020018281038252602c8152602001807f4e6f207075656465206d6f6469666963617220656c2065737461646f2064652081526020017f6c6120766f74616369c3b36e000000000000000000000000000000000000000081525060400191505060405180910390fd5b6006612503612fc6565b81548110151561250f57fe5b90600052602060002090600202019150816000018260010154818054600181600116156101000203166002900480601f0160208091040260200160405190810160405280929190818152602001828054600181600116156101000203166002900480156125bd5780601f10612592576101008083540402835291602001916125bd565b820191906000526020600020905b8154815290600101906020018083116125a057829003601f168201915b505050505091509350935050509091565b600260009054906101000a900473ffffffffffffffffffffffffffffffffffffffff1681565b6000600280600381111561260457fe5b600c60009054906101000a900460ff16600381111561261f57fe5b1415156126ba576040517f08c379a000000000000000000000000000000000000000000000000000000000815260040180806020018281038252602c8152602001807f4e6f207075656465206d6f6469666963617220656c2065737461646f2064652081526020017f6c6120766f74616369c3b36e000000000000000000000000000000000000000081525060400191505060405180910390fd5b6126c333612f53565b15151561275e576040517f08c379a00000000000000000000000000000000000000000000000000000000081526004018080602001828103825260338152602001807f59612073652072656769737472c3b320756e207573756172696f20636f6e206581526020017f6c206164647265737320696e6772657361646f0000000000000000000000000081525060400191505060405180910390fd5b61276783613041565b1515156127dc576040517f08c379a000000000000000000000000000000000000000000000000000000000815260040180806020018281038252601c8152602001807f456d61696c207265676973747261646f207072657669616d656e74650000000081525060200191505060405180910390fd5b600960003373ffffffffffffffffffffffffffffffffffffffff1673ffffffffffffffffffffffffffffffffffffffff16815260200190815260200160002060010160009054906101000a900460ff161515156128a1576040517f08c379a000000000000000000000000000000000000000000000000000000000815260040180806020018281038252601c8152602001807f456c207573756172696f20766f74c3b3207072657669616d656e74650000000081525060200191505060405180910390fd5b600960003373ffffffffffffffffffffffffffffffffffffffff1673ffffffffffffffffffffffffffffffffffffffff1681526020019081526020016000209150828260000190805190602001906128fa929190613143565b506001600a60003373ffffffffffffffffffffffffffffffffffffffff1673ffffffffffffffffffffffffffffffffffffffff16815260200190815260200160002060006101000a81548160ff0219169083151502179055506001600b846040518082805190602001908083835b60208310151561298d5780518252602082019150602081019050602083039250612968565b6001836020036101000a038019825116818451168082178552505050505050905001915050908152602001604051809103902060006101000a81548160ff0219169083151502179055506001600960003373ffffffffffffffffffffffffffffffffffffffff1673ffffffffffffffffffffffffffffffffffffffff1681526020019081526020016000206003018190555060073390806001815401808255809150509060018203906000526020600020016000909192909190916101000a81548173ffffffffffffffffffffffffffffffffffffffff021916908373ffffffffffffffffffffffffffffffffffffffff16021790555050505050565b6000600260009054906101000a900473ffffffffffffffffffffffffffffffffffffffff1673ffffffffffffffffffffffffffffffffffffffff163373ffffffffffffffffffffffffffffffffffffffff16141515612b77576040517f08c379a00000000000000000000000000000000000000000000000000000000081526004018080602001828103825260298152602001807f446562652073657220656c2061646d696e6973747261646f72206465206c612081526020017f766f74616369c3b36e000000000000000000000000000000000000000000000081525060400191505060405180910390fd5b600c60009054906101000a900460ff16905090565b600c60009054906101000a900460ff1681565b670de0b6b3a76400003410151515612c1f576040517f08c379a00000000000000000000000000000000000000000000000000000000081526004018080602001828103825260188152602001807f4e6f207365206c6f6772c3b320656c206465706f7369746f000000000000000081525060200191505060405180910390fd5b565b600881815481101515612c3057fe5b906000526020600020016000915090505481565b6060600682815481101515612c5557fe5b90600052602060002090600202016000018054600181600116156101000203166002900480601f016020809104026020016040519081016040528092919081815260200182805460018160011615610100020316600290048015612cfa5780601f10612ccf57610100808354040283529160200191612cfa565b820191906000526020600020905b815481529060010190602001808311612cdd57829003601f168201915b50505050509050919050565b6000600260009054906101000a900473ffffffffffffffffffffffffffffffffffffffff1673ffffffffffffffffffffffffffffffffffffffff163373ffffffffffffffffffffffffffffffffffffffff16141515612df3576040517f08c379a00000000000000000000000000000000000000000000000000000000081526004018080602001828103825260298152602001807f446562652073657220656c2061646d696e6973747261646f72206465206c612081526020017f766f74616369c3b36e000000000000000000000000000000000000000000000081525060400191505060405180910390fd5b600880549050905090565b60055481565b60608060006001818054600181600116156101000203166002900480601f016020809104026020016040519081016040528092919081815260200182805460018160011615610100020316600290048015612ea05780601f10612e7557610100808354040283529160200191612ea0565b820191906000526020600020905b815481529060010190602001808311612e8357829003601f168201915b50505050509150808054600181600116156101000203166002900480601f016020809104026020016040519081016040528092919081815260200182805460018160011615610100020316600290048015612f3c5780601f10612f1157610100808354040283529160200191612f3c565b820191906000526020600020905b815481529060010190602001808311612f1f57829003601f168201915b50505050509050915091509091565b600042905090565b6000600a60008373ffffffffffffffffffffffffffffffffffffffff1673ffffffffffffffffffffffffffffffffffffffff16815260200190815260200160002060009054906101000a900460ff169050919050565b6000670de0b6b3a764000082811515612fbe57fe5b049050919050565b6000806000809150600090505b60068054905081101561303c5781600682815481101515612ff057fe5b906000526020600020906002020160010154111561302f5760068181548110151561301757fe5b90600052602060002090600202016001015491508092505b8080600101915050612fd3565b505090565b6000600b826040518082805190602001908083835b60208310151561307b5780518252602082019150602081019050602083039250613056565b6001836020036101000a038019825116818451168082178552505050505050905001915050908152602001604051809103902060009054906101000a900460ff169050919050565b828054600181600116156101000203166002900490600052602060002090601f016020900481019282601f1061310457805160ff1916838001178555613132565b82800160010185558215613132579182015b82811115613131578251825591602001919060010190613116565b5b50905061313f91906131c3565b5090565b828054600181600116156101000203166002900490600052602060002090601f016020900481019282601f1061318457805160ff19168380011785556131b2565b828001600101855582156131b2579182015b828111156131b1578251825591602001919060010190613196565b5b5090506131bf91906131c3565b5090565b6131e591905b808211156131e15760008160009055506001016131c9565b5090565b905600a165627a7a723058205a7b352286d14a163367616bb3660f6f2be33761f57d25294edcc60c3e3184670029",
  "source": "pragma solidity ^0.4.24;\r\n\r\n\r\n/**\r\n * @title Ballot.sol: Smart Contract de eleccin de Representante Estudiantil\r\n * @author Camilo Andrs Rodrguez Burgos\r\n * @author Hector Oswaldo Franco Msmela\r\n * @notice Smart Contract de una votacin de Representante\r\n           Estudiantil de la Universidad Piloto de Colombia\r\n */\r\n\r\ncontract Ballot {\r\n    /**\r\n     * @dev Candidate: estructura\r\n     */\r\n    struct Candidate {\r\n        string name;\r\n        uint256 voteCount;\r\n    }\r\n\r\n    /**\r\n     * @dev Voter: estructura\r\n     */\r\n    struct Voter {\r\n        string email;\r\n        // Informacin de la votacin\r\n        bool voted;\r\n        uint256 candidateIndex;\r\n        uint256 weight;\r\n        uint256 voteTimestamp;\r\n    }\r\n\r\n    /**\r\n     * @dev atributos del contrato\r\n     */\r\n    string public name;\r\n    string public proposal;\r\n    address public ballotAdmin;\r\n    uint256 public ballotEnd;\r\n    uint256 public totalVoters;\r\n    uint256 public totalDoneVotes;\r\n\r\n    Candidate[] public candidates;\r\n    address[] public votersAddress;\r\n    uint256[] public votesDone;\r\n\r\n    /**\r\n     * @dev Mappings verificadores de los voters\r\n     */\r\n    mapping(address => Voter) private voters;\r\n    mapping(address => bool) private addedVoters;\r\n    mapping(string => bool) private addedEmail;\r\n\r\n    enum State {Initial, Created, Voting, Ended}\r\n\r\n    State public state;\r\n\r\n    /**\r\n     * @dev Eventos del contrato\r\n     */\r\n    event ElectionResult(string name, uint256 voteCount);\r\n    event voterAdded(string voterEmail, address voterAddress);\r\n    event voteStarted(string started);\r\n    event voteEnded(string ended);\r\n    event voteDone(address voter);\r\n    event showWinner(string, uint256 votes);\r\n    event showCertificate(string certificate, uint256 timestamp);\r\n    event showBallotInfo(string name, string proposal);\r\n\r\n    /**\r\n     * @dev createBallot()\r\n     * @param _name name of the ballot\r\n     * @param _proposal proposal of the ballot\r\n     */\r\n    function createBallot(string memory _name, string memory _proposal) public {\r\n        require(state == State.Initial, \"Votacin creada previamente\");\r\n        ballotAdmin = msg.sender;\r\n        name = _name;\r\n        proposal = _proposal;\r\n        state = State.Created;\r\n    }\r\n    /**\r\n     * @dev funcin addCandidate()\r\n     * @param _name of the candidate\r\n     */\r\n\r\n    function addCandidate(string memory _name)\r\n        public\r\n        inState(State.Created)\r\n        checkBallotAdmin\r\n\r\n    {\r\n        candidates.push(Candidate(_name, 0));\r\n    }\r\n\r\n    /**\r\n     * @dev funcin addVoter()\r\n     * @param _email of the current logged user\r\n     */\r\n    function addVoter(string memory _email) public inState(State.Voting) {\r\n        require(!getAddedVoter(msg.sender),\"Ya se registr un usuario con el address ingresado\");\r\n\r\n        require(!getVoterEmail(_email), \"Email registrado previamente\");\r\n\r\n        require(!voters[msg.sender].voted, \"El usuario vot previamente\");\r\n\r\n        Voter storage voter = voters[msg.sender];\r\n        voter.email = _email;\r\n\r\n        addedVoters[msg.sender] = true;\r\n        addedEmail[_email] = true;\r\n\r\n        voters[msg.sender].weight = 1;\r\n\r\n        votersAddress.push(msg.sender);\r\n    }\r\n\r\n\r\n    /**\r\n     * @dev funcin startBallot()\r\n     * @param durationMinutes Minutes that will be available the contract\r\n     */\r\n    function startBallot(uint256 durationMinutes)\r\n        public\r\n        inState(State.Created)\r\n        checkBallotAdmin\r\n        checkCandidates\r\n    {\r\n        candidates.push(Candidate(\"Voto en blanco\", 0));\r\n        ballotEnd = getTimestamp() + (durationMinutes * 1 minutes);\r\n        state = State.Voting;\r\n        emit voteStarted(\"Votacin iniciada\");\r\n    }\r\n\r\n    /**\r\n     * @dev funcin doVote()\r\n     * @param candidateIndex index of the candidate in the ballot\r\n     */\r\n    function doVote(uint256 candidateIndex) public inState(State.Voting) {\r\n        require(\r\n            getTimestamp() < ballotEnd,\r\n            \"Se pas el tiempo habilitado para votar\"\r\n        );\r\n        require(getAddedVoter(msg.sender), \"No est registrado en la votacin\");\r\n        require(!voters[msg.sender].voted, \"Ya vot previamente\");\r\n\r\n        voters[msg.sender].voted = true;\r\n        voters[msg.sender].candidateIndex = candidateIndex;\r\n\r\n        candidates[candidateIndex].voteCount += voters[msg.sender].weight;\r\n        votesDone.push(candidateIndex);\r\n    }\r\n\r\n    /**\r\n     * @dev funcin endBallot()\r\n     */\r\n    function endBallot() public inState(State.Voting) checkBallotAdmin {\r\n        require(getTimestamp() >= ballotEnd, \"La votacin an no finaliza\");\r\n        state = State.Ended;\r\n        emit voteEnded(\"Votacin finalizada\");\r\n    }\r\n\r\n    /**\r\n     * @dev funcin getBallotState()\r\n     * @return State of the ballot\r\n     */\r\n    function getBallotState() public view checkBallotAdmin returns (State) {\r\n        return state;\r\n    }\r\n\r\n    /**\r\n     * @dev Calls getWinner() function to get the index of the winner\r\n     * @return tuple(string name of the winner, uint256 voteCount)\r\n     */\r\n    function winnerCandidate()\r\n        public\r\n        view\r\n        inState(State.Ended)\r\n        returns (string memory, uint256)\r\n    {\r\n        Candidate storage winner = candidates[getWinner()];\r\n        return (winner.name, winner.voteCount);\r\n    }\r\n\r\n    /**\r\n     * @dev generates the voter certificate\r\n     */\r\n    function generateCertificate()\r\n        public\r\n        view\r\n        returns (string memory, uint256)\r\n    {\r\n        require(getAddedVoter(msg.sender), \"No est registrado en la votacin\");\r\n        require(\r\n            voters[msg.sender].voted,\r\n            \"Su certificado estar listo una vez haya votado\"\r\n        );\r\n        require(\r\n            state == State.Voting || state == State.Ended,\r\n            \"Espere hasta que la votacin haya iniciado\"\r\n        );\r\n\r\n        return (voters[msg.sender].email, voters[msg.sender].voteTimestamp);\r\n    }\r\n\r\n    /**\r\n     * @dev getTotalVoters()\r\n     * @return uint256 the total registered voters\r\n     */\r\n    function getTotalVoters() public view checkBallotAdmin returns (uint256) {\r\n        return votersAddress.length;\r\n    }\r\n\r\n        /**\r\n     * @dev getTotalDoneVotes()\r\n     * @return uint256 the total votes done\r\n     */\r\n    function getTotalDoneVotes() public view checkBallotAdmin returns (uint256) {\r\n        return votesDone.length;\r\n    }\r\n\r\n    /**\r\n     * @dev getFinalResult()\r\n     */\r\n    function getFinalResult() public inState(State.Ended) {\r\n        require(totalDoneVotes <= totalVoters, \"Votacin corrupta\");\r\n\r\n        for (uint256 i = 0; i < candidates.length; i++) {\r\n            emit ElectionResult(candidates[i].name, candidates[i].voteCount);\r\n        }\r\n    }\r\n\r\n    /**\r\n     * @dev getAddedVoter()\r\n     * @param voterAddress address of the voter\r\n     */\r\n\r\n    function getAddedVoter(address voterAddress) private view returns (bool) {\r\n        return addedVoters[voterAddress];\r\n    }\r\n\r\n    function getVoterState(address voterAddress) public view returns(bool) {\r\n        return voters[voterAddress].voted;\r\n    }\r\n\r\n    /**\r\n     * @dev getVoterEmail()\r\n     * @param voterEmail email of the voter\r\n     */\r\n    function getVoterEmail(string memory voterEmail)\r\n        private\r\n        view\r\n        returns (bool)\r\n    {\r\n        return addedEmail[voterEmail];\r\n    }\r\n\r\n    /**\r\n     * @dev getTotalCandidates()\r\n     * @return uint256\r\n     */\r\n\r\n    function getTotalCandidates() public view returns (uint256) {\r\n        return candidates.length;\r\n    }\r\n\r\n    function getBallotInfo()\r\n        public\r\n        view\r\n        returns (string memory, string memory)\r\n    {\r\n        return (name, proposal);\r\n    }\r\n\r\n    /**\r\n     * @dev getCandidateName()\r\n     * @return string candidateName\r\n     */\r\n    function getCandidateName(uint256 candidateIndex)\r\n        public\r\n        view\r\n        returns (string memory)\r\n    {\r\n        return candidates[candidateIndex].name;\r\n    }\r\n\r\n    function getContractBalance() public view returns (uint256) {\r\n        return toEther(address(this).balance);\r\n    }\r\n\r\n    function deposit() public payable {\r\n        require(msg.value >= 1 ether, \"No se logr el deposito\");\r\n    }\r\n\r\n    function withdraw()public {\r\n        require(msg.sender == ballotAdmin, \"Dueo\");\r\n        for (uint256 i = 0; i < votersAddress.length; i++) {\r\n             votersAddress[i].transfer(1 ether);\r\n        }\r\n    }\r\n\r\n    /**\r\n     * @dev getWinner(): helper function\r\n     * @return winningCandidate (the index of the winner candidate)\r\n     */\r\n\r\n    function getWinner() private view returns (uint256 winningCandidate) {\r\n        uint256 winningVoteCount = 0;\r\n        for (uint256 i = 0; i < candidates.length; i++) {\r\n            if (candidates[i].voteCount > winningVoteCount) {\r\n                winningVoteCount = candidates[i].voteCount;\r\n                winningCandidate = i;\r\n            }\r\n        }\r\n    }\r\n\r\n    function getTimestamp() private view returns (uint256) {\r\n        return now;\r\n    }\r\n\r\n    function toEther(uint256 balance) private pure returns (uint256) {\r\n        return (balance / 1e18);\r\n    }\r\n\r\n    /**\r\n     * @dev Modifier: verifies the correct state of the Ballot\r\n     * @param _state of the ballot\r\n     */\r\n    modifier inState(State _state) {\r\n        require(state == _state, \"No puede modificar el estado de la votacin\");\r\n        _;\r\n    }\r\n\r\n    /**\r\n     * @dev Modifier: verefies that the admin of the Ballot is the same that the one who created the contract\r\n     */\r\n    modifier checkBallotAdmin() {\r\n        require(\r\n            msg.sender == ballotAdmin,\r\n            \"Debe ser el administrador de la votacin\"\r\n        );\r\n        _;\r\n    }\r\n\r\n    /**\r\n     * @dev Modifier: verifies the candidates array is not empty\r\n     */\r\n    modifier checkCandidates() {\r\n        require(candidates.length > 1, \"Debe haber ms de un candidato\");\r\n        _;\r\n    }\r\n}\r\n",
  "sourcePath": "C:\\Users\\HectorDev\\Documents\\VotationUPC\\contracts\\Ballot.sol",
  "compiler": {
    "name": "solc",
    "version": "0.4.25+commit.59dbf8f1.Emscripten.clang"
  },
  "schemaVersion": "2.0.2",
  "updatedAt": "2020-05-18T12:15:23.783Z"
}