{
  "contractName": "Ballot",
  "abi": [
    {
      "constant": true,
      "inputs": [],
      "name": "name",
      "outputs": [
        {
          "name": "",
          "type": "string"
        }
      ],
      "payable": false,
      "stateMutability": "view",
      "type": "function"
    },
    {
      "constant": true,
      "inputs": [],
      "name": "ballotEnd",
      "outputs": [
        {
          "name": "",
          "type": "uint256"
        }
      ],
      "payable": false,
      "stateMutability": "view",
      "type": "function"
    },
    {
      "constant": true,
      "inputs": [
        {
          "name": "",
          "type": "uint256"
        }
      ],
      "name": "candidates",
      "outputs": [
        {
          "name": "name",
          "type": "string"
        },
        {
          "name": "voteCount",
          "type": "uint256"
        }
      ],
      "payable": false,
      "stateMutability": "view",
      "type": "function"
    },
    {
      "constant": true,
      "inputs": [],
      "name": "totalVoters",
      "outputs": [
        {
          "name": "",
          "type": "uint256"
        }
      ],
      "payable": false,
      "stateMutability": "view",
      "type": "function"
    },
    {
      "constant": true,
      "inputs": [],
      "name": "proposal",
      "outputs": [
        {
          "name": "",
          "type": "string"
        }
      ],
      "payable": false,
      "stateMutability": "view",
      "type": "function"
    },
    {
      "constant": true,
      "inputs": [],
      "name": "ballotAdmin",
      "outputs": [
        {
          "name": "",
          "type": "address"
        }
      ],
      "payable": false,
      "stateMutability": "view",
      "type": "function"
    },
    {
      "constant": true,
      "inputs": [],
      "name": "state",
      "outputs": [
        {
          "name": "",
          "type": "uint8"
        }
      ],
      "payable": false,
      "stateMutability": "view",
      "type": "function"
    },
    {
      "constant": true,
      "inputs": [],
      "name": "totalDoneVotes",
      "outputs": [
        {
          "name": "",
          "type": "uint256"
        }
      ],
      "payable": false,
      "stateMutability": "view",
      "type": "function"
    },
    {
      "anonymous": false,
      "inputs": [
        {
          "indexed": false,
          "name": "name",
          "type": "string"
        },
        {
          "indexed": false,
          "name": "voteCount",
          "type": "uint256"
        }
      ],
      "name": "ElectionResult",
      "type": "event"
    },
    {
      "anonymous": false,
      "inputs": [
        {
          "indexed": false,
          "name": "voterEmail",
          "type": "string"
        },
        {
          "indexed": false,
          "name": "voterAddress",
          "type": "address"
        }
      ],
      "name": "voterAdded",
      "type": "event"
    },
    {
      "anonymous": false,
      "inputs": [
        {
          "indexed": false,
          "name": "",
          "type": "string"
        }
      ],
      "name": "voteStarted",
      "type": "event"
    },
    {
      "anonymous": false,
      "inputs": [
        {
          "indexed": false,
          "name": "",
          "type": "string"
        }
      ],
      "name": "voteEnded",
      "type": "event"
    },
    {
      "anonymous": false,
      "inputs": [
        {
          "indexed": false,
          "name": "voter",
          "type": "address"
        }
      ],
      "name": "voteDone",
      "type": "event"
    },
    {
      "anonymous": false,
      "inputs": [
        {
          "indexed": false,
          "name": "",
          "type": "string"
        },
        {
          "indexed": false,
          "name": "votes",
          "type": "uint256"
        }
      ],
      "name": "showWinner",
      "type": "event"
    },
    {
      "anonymous": false,
      "inputs": [
        {
          "indexed": false,
          "name": "",
          "type": "string"
        },
        {
          "indexed": false,
          "name": "",
          "type": "uint256"
        }
      ],
      "name": "showCertificate",
      "type": "event"
    },
    {
      "anonymous": false,
      "inputs": [
        {
          "indexed": false,
          "name": "name",
          "type": "string"
        },
        {
          "indexed": false,
          "name": "proposal",
          "type": "string"
        }
      ],
      "name": "showBallotInfo",
      "type": "event"
    },
    {
      "constant": false,
      "inputs": [
        {
          "name": "_name",
          "type": "string"
        },
        {
          "name": "_proposal",
          "type": "string"
        }
      ],
      "name": "createBallot",
      "outputs": [],
      "payable": false,
      "stateMutability": "nonpayable",
      "type": "function"
    },
    {
      "constant": false,
      "inputs": [
        {
          "name": "_name",
          "type": "string"
        }
      ],
      "name": "addCandidate",
      "outputs": [],
      "payable": false,
      "stateMutability": "nonpayable",
      "type": "function"
    },
    {
      "constant": false,
      "inputs": [
        {
          "name": "email",
          "type": "string"
        }
      ],
      "name": "addVoter",
      "outputs": [],
      "payable": false,
      "stateMutability": "nonpayable",
      "type": "function"
    },
    {
      "constant": false,
      "inputs": [
        {
          "name": "durationMinutes",
          "type": "uint256"
        }
      ],
      "name": "startBallot",
      "outputs": [],
      "payable": false,
      "stateMutability": "nonpayable",
      "type": "function"
    },
    {
      "constant": false,
      "inputs": [
        {
          "name": "candidateIndex",
          "type": "uint256"
        }
      ],
      "name": "doVote",
      "outputs": [],
      "payable": false,
      "stateMutability": "nonpayable",
      "type": "function"
    },
    {
      "constant": false,
      "inputs": [],
      "name": "endBallot",
      "outputs": [],
      "payable": false,
      "stateMutability": "nonpayable",
      "type": "function"
    },
    {
      "constant": true,
      "inputs": [],
      "name": "getBallotState",
      "outputs": [
        {
          "name": "",
          "type": "uint8"
        }
      ],
      "payable": false,
      "stateMutability": "view",
      "type": "function"
    },
    {
      "constant": true,
      "inputs": [],
      "name": "winnerCandidate",
      "outputs": [
        {
          "name": "",
          "type": "string"
        },
        {
          "name": "",
          "type": "uint256"
        }
      ],
      "payable": false,
      "stateMutability": "view",
      "type": "function"
    },
    {
      "constant": true,
      "inputs": [],
      "name": "generateCertificate",
      "outputs": [
        {
          "name": "",
          "type": "string"
        },
        {
          "name": "",
          "type": "uint256"
        }
      ],
      "payable": false,
      "stateMutability": "view",
      "type": "function"
    },
    {
      "constant": true,
      "inputs": [],
      "name": "getTotalVoters",
      "outputs": [
        {
          "name": "",
          "type": "uint256"
        }
      ],
      "payable": false,
      "stateMutability": "view",
      "type": "function"
    },
    {
      "constant": false,
      "inputs": [],
      "name": "getFinalResult",
      "outputs": [],
      "payable": false,
      "stateMutability": "nonpayable",
      "type": "function"
    },
    {
      "constant": true,
      "inputs": [],
      "name": "getTotalCandidates",
      "outputs": [
        {
          "name": "",
          "type": "uint256"
        }
      ],
      "payable": false,
      "stateMutability": "view",
      "type": "function"
    },
    {
      "constant": true,
      "inputs": [],
      "name": "getBallotInfo",
      "outputs": [
        {
          "name": "",
          "type": "string"
        },
        {
          "name": "",
          "type": "string"
        }
      ],
      "payable": false,
      "stateMutability": "view",
      "type": "function"
    },
    {
      "constant": true,
      "inputs": [
        {
          "name": "candidateIndex",
          "type": "uint256"
        }
      ],
      "name": "getCandidateName",
      "outputs": [
        {
          "name": "",
          "type": "string"
        }
      ],
      "payable": false,
      "stateMutability": "view",
      "type": "function"
    },
    {
      "constant": true,
      "inputs": [],
      "name": "getContractBalance",
      "outputs": [
        {
          "name": "",
          "type": "uint256"
        }
      ],
      "payable": false,
      "stateMutability": "view",
      "type": "function"
    },
    {
      "constant": false,
      "inputs": [],
      "name": "deposit",
      "outputs": [],
      "payable": true,
      "stateMutability": "payable",
      "type": "function"
    },
    {
      "constant": true,
      "inputs": [
        {
          "name": "add",
          "type": "address"
        }
      ],
      "name": "getAddressBalance",
      "outputs": [
        {
          "name": "",
          "type": "uint256"
        }
      ],
      "payable": false,
      "stateMutability": "view",
      "type": "function"
    },
    {
      "constant": false,
      "inputs": [],
      "name": "withdraw",
      "outputs": [],
      "payable": true,
      "stateMutability": "payable",
      "type": "function"
    }
  ],
  "bytecode": "0x608060405234801561001057600080fd5b50612eb0806100206000396000f300608060405260043610610154576000357c0100000000000000000000000000000000000000000000000000000000900463ffffffff16806306fdde03146101595780630deb56ab146101e9578063124258c61461021457806318034fe4146102415780633400ba111461026e5780633477ee2e1461029957806335046722146103465780633a47cb601461039d5780633c6e5310146103b45780633ccfd60b146103cb578063462e91ec146103d55780635f180fa91461043e5780635f5300ff146104d55780636f9fb98a146105005780636fa4f1031461052b578063753ec103146105da578063793cf2181461066a578063a15148d114610695578063a8aa3b0e1461072c578063aca8489214610783578063bd6fb437146107ec578063c19d93fb14610825578063d0e30db01461085e578063e13804a714610868578063f48c31e91461090e578063f767b1ca14610939575b600080fd5b34801561016557600080fd5b5061016e610a35565b6040518080602001828103825283818151815260200191508051906020019080838360005b838110156101ae578082015181840152602081019050610193565b50505050905090810190601f1680156101db5780820380516001836020036101000a031916815260200191505b509250505060405180910390f35b3480156101f557600080fd5b506101fe610ad3565b6040518082815260200191505060405180910390f35b34801561022057600080fd5b5061023f60048036038101908080359060200190929190505050610ae0565b005b34801561024d57600080fd5b5061026c60048036038101908080359060200190929190505050610f8b565b005b34801561027a57600080fd5b506102836112fc565b6040518082815260200191505060405180910390f35b3480156102a557600080fd5b506102c460048036038101908080359060200190929190505050611302565b6040518080602001838152602001828103825284818151815260200191508051906020019080838360005b8381101561030a5780820151818401526020810190506102ef565b50505050905090810190601f1680156103375780820380516001836020036101000a031916815260200191505b50935050505060405180910390f35b34801561035257600080fd5b50610387600480360381019080803573ffffffffffffffffffffffffffffffffffffffff1690602001909291905050506113cd565b6040518082815260200191505060405180910390f35b3480156103a957600080fd5b506103b26113f6565b005b3480156103c057600080fd5b506103c96116b5565b005b6103d361191a565b005b3480156103e157600080fd5b5061043c600480360381019080803590602001908201803590602001908080601f016020809104026020016040519081016040528093929190818152602001838380828437820191505050505050919291929050505061196b565b005b34801561044a57600080fd5b50610453611b8b565b6040518080602001838152602001828103825284818151815260200191508051906020019080838360005b8381101561049957808201518184015260208101905061047e565b50505050905090810190601f1680156104c65780820380516001836020036101000a031916815260200191505b50935050505060405180910390f35b3480156104e157600080fd5b506104ea611f37565b6040518082815260200191505060405180910390f35b34801561050c57600080fd5b50610515611f3d565b6040518082815260200191505060405180910390f35b34801561053757600080fd5b506105d8600480360381019080803590602001908201803590602001908080601f0160208091040260200160405190810160405280939291908181526020018383808284378201915050505050509192919290803590602001908201803590602001908080601f0160208091040260200160405190810160405280939291908181526020018383808284378201915050505050509192919290505050611f64565b005b3480156105e657600080fd5b506105ef6120a8565b6040518080602001828103825283818151815260200191508051906020019080838360005b8381101561062f578082015181840152602081019050610614565b50505050905090810190601f16801561065c5780820380516001836020036101000a031916815260200191505b509250505060405180910390f35b34801561067657600080fd5b5061067f612146565b6040518082815260200191505060405180910390f35b3480156106a157600080fd5b506106aa61223b565b6040518080602001838152602001828103825284818151815260200191508051906020019080838360005b838110156106f05780820151818401526020810190506106d5565b50505050905090810190601f16801561071d5780820380516001836020036101000a031916815260200191505b50935050505060405180910390f35b34801561073857600080fd5b506107416123d9565b604051808273ffffffffffffffffffffffffffffffffffffffff1673ffffffffffffffffffffffffffffffffffffffff16815260200191505060405180910390f35b34801561078f57600080fd5b506107ea600480360381019080803590602001908201803590602001908080601f01602080910402602001604051908101604052809392919081815260200183838082843782019150505050505091929192905050506123ff565b005b3480156107f857600080fd5b50610801612841565b6040518082600381111561081157fe5b60ff16815260200191505060405180910390f35b34801561083157600080fd5b5061083a612943565b6040518082600381111561084a57fe5b60ff16815260200191505060405180910390f35b610866612956565b005b34801561087457600080fd5b50610893600480360381019080803590602001909291905050506129d8565b6040518080602001828103825283818151815260200191508051906020019080838360005b838110156108d35780820151818401526020810190506108b8565b50505050905090810190601f1680156109005780820380516001836020036101000a031916815260200191505b509250505060405180910390f35b34801561091a57600080fd5b50610923612a9a565b6040518082815260200191505060405180910390f35b34801561094557600080fd5b5061094e612aa0565b604051808060200180602001838103835285818151815260200191508051906020019080838360005b83811015610992578082015181840152602081019050610977565b50505050905090810190601f1680156109bf5780820380516001836020036101000a031916815260200191505b50838103825284818151815260200191508051906020019080838360005b838110156109f85780820151818401526020810190506109dd565b50505050905090810190601f168015610a255780820380516001836020036101000a031916815260200191505b5094505050505060405180910390f35b60008054600181600116156101000203166002900480601f016020809104026020016040519081016040528092919081815260200182805460018160011615610100020316600290048015610acb5780601f10610aa057610100808354040283529160200191610acb565b820191906000526020600020905b815481529060010190602001808311610aae57829003601f168201915b505050505081565b6000600680549050905090565b6002806003811115610aee57fe5b600a60009054906101000a900460ff166003811115610b0957fe5b141515610ba4576040517f08c379a000000000000000000000000000000000000000000000000000000000815260040180806020018281038252602c8152602001807f4e6f207075656465206d6f6469666963617220656c2065737461646f2064652081526020017f6c6120766f74616369c3b36e000000000000000000000000000000000000000081525060400191505060405180910390fd5b600354610baf612be7565b101515610c4a576040517f08c379a00000000000000000000000000000000000000000000000000000000081526004018080602001828103825260288152602001807f536520706173c3b320656c207469656d706f20686162696c697461646f20706181526020017f726120766f74617200000000000000000000000000000000000000000000000081525060400191505060405180910390fd5b610c5333612bef565b1515610ced576040517f08c379a00000000000000000000000000000000000000000000000000000000081526004018080602001828103825260238152602001807f4e6f20657374c3a1207265676973747261646f20656e206c6120766f7461636981526020017fc3b36e000000000000000000000000000000000000000000000000000000000081525060400191505060405180910390fd5b600760003373ffffffffffffffffffffffffffffffffffffffff1673ffffffffffffffffffffffffffffffffffffffff16815260200190815260200160002060010160009054906101000a900460ff16151515610db2576040517f08c379a00000000000000000000000000000000000000000000000000000000081526004018080602001828103825260148152602001807f596120766f74c3b3207072657669616d656e746500000000000000000000000081525060200191505060405180910390fd5b6001600760003373ffffffffffffffffffffffffffffffffffffffff1673ffffffffffffffffffffffffffffffffffffffff16815260200190815260200160002060010160006101000a81548160ff02191690831515021790555081600760003373ffffffffffffffffffffffffffffffffffffffff1673ffffffffffffffffffffffffffffffffffffffff16815260200190815260200160002060020181905550610e5c612be7565b600760003373ffffffffffffffffffffffffffffffffffffffff1673ffffffffffffffffffffffffffffffffffffffff16815260200190815260200160002060040181905550600760003373ffffffffffffffffffffffffffffffffffffffff1673ffffffffffffffffffffffffffffffffffffffff16815260200190815260200160002060030154600683815481101515610ef457fe5b9060005260206000209060020201600101600082825401925050819055506005600081548092919060010191905055507f55c65cf9526efdf6c2252fe9757889dbd93e10172cad0f2edb1df619c88dbf7d33604051808273ffffffffffffffffffffffffffffffffffffffff1673ffffffffffffffffffffffffffffffffffffffff16815260200191505060405180910390a15050565b6001806003811115610f9957fe5b600a60009054906101000a900460ff166003811115610fb457fe5b14151561104f576040517f08c379a000000000000000000000000000000000000000000000000000000000815260040180806020018281038252602c8152602001807f4e6f207075656465206d6f6469666963617220656c2065737461646f2064652081526020017f6c6120766f74616369c3b36e000000000000000000000000000000000000000081525060400191505060405180910390fd5b600260009054906101000a900473ffffffffffffffffffffffffffffffffffffffff1673ffffffffffffffffffffffffffffffffffffffff163373ffffffffffffffffffffffffffffffffffffffff1614151561113a576040517f08c379a00000000000000000000000000000000000000000000000000000000081526004018080602001828103825260298152602001807f446562652073657220656c2061646d696e6973747261646f72206465206c612081526020017f766f74616369c3b36e000000000000000000000000000000000000000000000081525060400191505060405180910390fd5b60016006805490501115156111b7576040517f08c379a000000000000000000000000000000000000000000000000000000000815260040180806020018281038252601f8152602001807f44656265206861626572206dc3a17320646520756e2063616e64696461746f0081525060200191505060405180910390fd5b600660408051908101604052806040805190810160405280600e81526020017f566f746f20656e20626c616e636f0000000000000000000000000000000000008152508152602001600081525090806001815401808255809150509060018203906000526020600020906002020160009091929091909150600082015181600001908051906020019061124b929190612d5f565b5060208201518160010155505050603c8202611265612be7565b016003819055506002600a60006101000a81548160ff0219169083600381111561128b57fe5b02179055507f45ae8e5a983b405c50a629696a5fd665365e15f9c4fa5dbc947e035891e4dde16040518080602001828103825260128152602001807f566f74616369c3b36e20696e696369616461000000000000000000000000000081525060200191505060405180910390a15050565b60035481565b60068181548110151561131157fe5b9060005260206000209060020201600091509050806000018054600181600116156101000203166002900480601f0160208091040260200160405190810160405280929190818152602001828054600181600116156101000203166002900480156113bd5780601f10611392576101008083540402835291602001916113bd565b820191906000526020600020905b8154815290600101906020018083116113a057829003601f168201915b5050505050908060010154905082565b60006113ef8273ffffffffffffffffffffffffffffffffffffffff1631612c45565b9050919050565b600280600381111561140457fe5b600a60009054906101000a900460ff16600381111561141f57fe5b1415156114ba576040517f08c379a000000000000000000000000000000000000000000000000000000000815260040180806020018281038252602c8152602001807f4e6f207075656465206d6f6469666963617220656c2065737461646f2064652081526020017f6c6120766f74616369c3b36e000000000000000000000000000000000000000081525060400191505060405180910390fd5b600260009054906101000a900473ffffffffffffffffffffffffffffffffffffffff1673ffffffffffffffffffffffffffffffffffffffff163373ffffffffffffffffffffffffffffffffffffffff161415156115a5576040517f08c379a00000000000000000000000000000000000000000000000000000000081526004018080602001828103825260298152602001807f446562652073657220656c2061646d696e6973747261646f72206465206c612081526020017f766f74616369c3b36e000000000000000000000000000000000000000000000081525060400191505060405180910390fd5b6003546115b0612be7565b10151515611626576040517f08c379a000000000000000000000000000000000000000000000000000000000815260040180806020018281038252601d8152602001807f4c6120766f74616369c3b36e2061c3ba6e206e6f2066696e616c697a6100000081525060200191505060405180910390fd5b6003600a60006101000a81548160ff0219169083600381111561164557fe5b02179055507f1c9db16d4f54d3a4e1f06123c554022a9f3f0357d24c7de3780857ddc4de92446040518080602001828103825260148152602001807f566f74616369c3b36e2066696e616c697a61646100000000000000000000000081525060200191505060405180910390a150565b600060038060038111156116c557fe5b600a60009054906101000a900460ff1660038111156116e057fe5b14151561177b576040517f08c379a000000000000000000000000000000000000000000000000000000000815260040180806020018281038252602c8152602001807f4e6f207075656465206d6f6469666963617220656c2065737461646f2064652081526020017f6c6120766f74616369c3b36e000000000000000000000000000000000000000081525060400191505060405180910390fd5b600454600554111515156117f7576040517f08c379a00000000000000000000000000000000000000000000000000000000081526004018080602001828103825260128152602001807f566f74616369c3b36e20636f727275707461000000000000000000000000000081525060200191505060405180910390fd5b600091505b600680549050821015611916577f156b5ffaa1a96772b4d324b6a0492ba5c51abe8a2818c38a0d409faddb63578c60068381548110151561183957fe5b906000526020600020906002020160000160068481548110151561185957fe5b90600052602060002090600202016001015460405180806020018381526020018281038252848181546001816001161561010002031660029004815260200191508054600181600116156101000203166002900480156118fa5780601f106118cf576101008083540402835291602001916118fa565b820191906000526020600020905b8154815290600101906020018083116118dd57829003601f168201915b5050935050505060405180910390a181806001019250506117fc565b5050565b3373ffffffffffffffffffffffffffffffffffffffff166108fc670de0b6b3a76400009081150290604051600060405180830381858888f19350505050158015611968573d6000803e3d6000fd5b50565b600180600381111561197957fe5b600a60009054906101000a900460ff16600381111561199457fe5b141515611a2f576040517f08c379a000000000000000000000000000000000000000000000000000000000815260040180806020018281038252602c8152602001807f4e6f207075656465206d6f6469666963617220656c2065737461646f2064652081526020017f6c6120766f74616369c3b36e000000000000000000000000000000000000000081525060400191505060405180910390fd5b600260009054906101000a900473ffffffffffffffffffffffffffffffffffffffff1673ffffffffffffffffffffffffffffffffffffffff163373ffffffffffffffffffffffffffffffffffffffff16141515611b1a576040517f08c379a00000000000000000000000000000000000000000000000000000000081526004018080602001828103825260298152602001807f446562652073657220656c2061646d696e6973747261646f72206465206c612081526020017f766f74616369c3b36e000000000000000000000000000000000000000000000081525060400191505060405180910390fd5b600660408051908101604052808481526020016000815250908060018154018082558091505090600182039060005260206000209060020201600090919290919091506000820151816000019080519060200190611b79929190612d5f565b50602082015181600101555050505050565b60606000611b9833612bef565b1515611c32576040517f08c379a00000000000000000000000000000000000000000000000000000000081526004018080602001828103825260238152602001807f4e6f20657374c3a1207265676973747261646f20656e206c6120766f7461636981526020017fc3b36e000000000000000000000000000000000000000000000000000000000081525060400191505060405180910390fd5b600760003373ffffffffffffffffffffffffffffffffffffffff1673ffffffffffffffffffffffffffffffffffffffff16815260200190815260200160002060010160009054906101000a900460ff161515611d1c576040517f08c379a00000000000000000000000000000000000000000000000000000000081526004018080602001828103825260308152602001807f537520636572746966696361646f206573746172c3a1206c6973746f20756e6181526020017f2076657a206861796120766f7461646f0000000000000000000000000000000081525060400191505060405180910390fd5b60026003811115611d2957fe5b600a60009054906101000a900460ff166003811115611d4457fe5b1480611d745750600380811115611d5757fe5b600a60009054906101000a900460ff166003811115611d7257fe5b145b1515611e0e576040517f08c379a000000000000000000000000000000000000000000000000000000000815260040180806020018281038252602b8152602001807f45737065726520686173746120717565206c6120766f74616369c3b36e20686181526020017f796120696e69636961646f00000000000000000000000000000000000000000081525060400191505060405180910390fd5b600760003373ffffffffffffffffffffffffffffffffffffffff1673ffffffffffffffffffffffffffffffffffffffff168152602001908152602001600020600001600760003373ffffffffffffffffffffffffffffffffffffffff1673ffffffffffffffffffffffffffffffffffffffff16815260200190815260200160002060040154818054600181600116156101000203166002900480601f016020809104026020016040519081016040528092919081815260200182805460018160011615610100020316600290048015611f285780601f10611efd57610100808354040283529160200191611f28565b820191906000526020600020905b815481529060010190602001808311611f0b57829003601f168201915b50505050509150915091509091565b60045481565b6000611f5f3073ffffffffffffffffffffffffffffffffffffffff1631612c45565b905090565b60006003811115611f7157fe5b600a60009054906101000a900460ff166003811115611f8c57fe5b141515612001576040517f08c379a000000000000000000000000000000000000000000000000000000000815260040180806020018281038252601c8152602001807f566f74616369c3b36e20637265616461207072657669616d656e74650000000081525060200191505060405180910390fd5b33600260006101000a81548173ffffffffffffffffffffffffffffffffffffffff021916908373ffffffffffffffffffffffffffffffffffffffff1602179055508160009080519060200190612058929190612ddf565b50806001908051906020019061206f929190612ddf565b50600060048190555060006005819055506001600a60006101000a81548160ff0219169083600381111561209f57fe5b02179055505050565b60018054600181600116156101000203166002900480601f01602080910402602001604051908101604052809291908181526020018280546001816001161561010002031660029004801561213e5780601f106121135761010080835404028352916020019161213e565b820191906000526020600020905b81548152906001019060200180831161212157829003601f168201915b505050505081565b6000600260009054906101000a900473ffffffffffffffffffffffffffffffffffffffff1673ffffffffffffffffffffffffffffffffffffffff163373ffffffffffffffffffffffffffffffffffffffff16141515612233576040517f08c379a00000000000000000000000000000000000000000000000000000000081526004018080602001828103825260298152602001807f446562652073657220656c2061646d696e6973747261646f72206465206c612081526020017f766f74616369c3b36e000000000000000000000000000000000000000000000081525060400191505060405180910390fd5b600454905090565b6060600080600380600381111561224e57fe5b600a60009054906101000a900460ff16600381111561226957fe5b141515612304576040517f08c379a000000000000000000000000000000000000000000000000000000000815260040180806020018281038252602c8152602001807f4e6f207075656465206d6f6469666963617220656c2065737461646f2064652081526020017f6c6120766f74616369c3b36e000000000000000000000000000000000000000081525060400191505060405180910390fd5b600661230e612c62565b81548110151561231a57fe5b90600052602060002090600202019150816000018260010154818054600181600116156101000203166002900480601f0160208091040260200160405190810160405280929190818152602001828054600181600116156101000203166002900480156123c85780601f1061239d576101008083540402835291602001916123c8565b820191906000526020600020905b8154815290600101906020018083116123ab57829003601f168201915b505050505091509350935050509091565b600260009054906101000a900473ffffffffffffffffffffffffffffffffffffffff1681565b6000600180600381111561240f57fe5b600a60009054906101000a900460ff16600381111561242a57fe5b1415156124c5576040517f08c379a000000000000000000000000000000000000000000000000000000000815260040180806020018281038252602c8152602001807f4e6f207075656465206d6f6469666963617220656c2065737461646f2064652081526020017f6c6120766f74616369c3b36e000000000000000000000000000000000000000081525060400191505060405180910390fd5b6124ce33612bef565b151515612569576040517f08c379a00000000000000000000000000000000000000000000000000000000081526004018080602001828103825260338152602001807f59612073652072656769737472c3b320756e207573756172696f20636f6e206581526020017f6c206164647265737320696e6772657361646f0000000000000000000000000081525060400191505060405180910390fd5b61257283612cdd565b1515156125e7576040517f08c379a000000000000000000000000000000000000000000000000000000000815260040180806020018281038252601c8152602001807f456d61696c207265676973747261646f207072657669616d656e74650000000081525060200191505060405180910390fd5b600760003373ffffffffffffffffffffffffffffffffffffffff1673ffffffffffffffffffffffffffffffffffffffff16815260200190815260200160002060010160009054906101000a900460ff161515156126ac576040517f08c379a000000000000000000000000000000000000000000000000000000000815260040180806020018281038252601c8152602001807f456c207573756172696f20766f74c3b3207072657669616d656e74650000000081525060200191505060405180910390fd5b600760003373ffffffffffffffffffffffffffffffffffffffff1673ffffffffffffffffffffffffffffffffffffffff168152602001908152602001600020915082826000019080519060200190612705929190612ddf565b506001600860003373ffffffffffffffffffffffffffffffffffffffff1673ffffffffffffffffffffffffffffffffffffffff16815260200190815260200160002060006101000a81548160ff02191690831515021790555060016009846040518082805190602001908083835b6020831015156127985780518252602082019150602081019050602083039250612773565b6001836020036101000a038019825116818451168082178552505050505050905001915050908152602001604051809103902060006101000a81548160ff0219169083151502179055506001600760003373ffffffffffffffffffffffffffffffffffffffff1673ffffffffffffffffffffffffffffffffffffffff16815260200190815260200160002060030181905550600460008154809291906001019190505550505050565b6000600260009054906101000a900473ffffffffffffffffffffffffffffffffffffffff1673ffffffffffffffffffffffffffffffffffffffff163373ffffffffffffffffffffffffffffffffffffffff1614151561292e576040517f08c379a00000000000000000000000000000000000000000000000000000000081526004018080602001828103825260298152602001807f446562652073657220656c2061646d696e6973747261646f72206465206c612081526020017f766f74616369c3b36e000000000000000000000000000000000000000000000081525060400191505060405180910390fd5b600a60009054906101000a900460ff16905090565b600a60009054906101000a900460ff1681565b670de0b6b3a764000034101515156129d6576040517f08c379a00000000000000000000000000000000000000000000000000000000081526004018080602001828103825260188152602001807f4e6f207365206c6f6772c3b320656c206465706f7369746f000000000000000081525060200191505060405180910390fd5b565b60606006828154811015156129e957fe5b90600052602060002090600202016000018054600181600116156101000203166002900480601f016020809104026020016040519081016040528092919081815260200182805460018160011615610100020316600290048015612a8e5780601f10612a6357610100808354040283529160200191612a8e565b820191906000526020600020905b815481529060010190602001808311612a7157829003601f168201915b50505050509050919050565b60055481565b60608060006001818054600181600116156101000203166002900480601f016020809104026020016040519081016040528092919081815260200182805460018160011615610100020316600290048015612b3c5780601f10612b1157610100808354040283529160200191612b3c565b820191906000526020600020905b815481529060010190602001808311612b1f57829003601f168201915b50505050509150808054600181600116156101000203166002900480601f016020809104026020016040519081016040528092919081815260200182805460018160011615610100020316600290048015612bd85780601f10612bad57610100808354040283529160200191612bd8565b820191906000526020600020905b815481529060010190602001808311612bbb57829003601f168201915b50505050509050915091509091565b600042905090565b6000600860008373ffffffffffffffffffffffffffffffffffffffff1673ffffffffffffffffffffffffffffffffffffffff16815260200190815260200160002060009054906101000a900460ff169050919050565b6000670de0b6b3a764000082811515612c5a57fe5b049050919050565b6000806000809150600090505b600680549050811015612cd85781600682815481101515612c8c57fe5b9060005260206000209060020201600101541115612ccb57600681815481101515612cb357fe5b90600052602060002090600202016001015491508092505b8080600101915050612c6f565b505090565b60006009826040518082805190602001908083835b602083101515612d175780518252602082019150602081019050602083039250612cf2565b6001836020036101000a038019825116818451168082178552505050505050905001915050908152602001604051809103902060009054906101000a900460ff169050919050565b828054600181600116156101000203166002900490600052602060002090601f016020900481019282601f10612da057805160ff1916838001178555612dce565b82800160010185558215612dce579182015b82811115612dcd578251825591602001919060010190612db2565b5b509050612ddb9190612e5f565b5090565b828054600181600116156101000203166002900490600052602060002090601f016020900481019282601f10612e2057805160ff1916838001178555612e4e565b82800160010185558215612e4e579182015b82811115612e4d578251825591602001919060010190612e32565b5b509050612e5b9190612e5f565b5090565b612e8191905b80821115612e7d576000816000905550600101612e65565b5090565b905600a165627a7a7230582001a80c60abe99da7a3e7809ba052adf1bea4139b68b37f9a62307021a2e3d47a0029",
  "source": "// pragma solidity >=0.4.22 <0.7.0;\r\npragma solidity ^0.4.24;\r\n\r\n\r\n/**\r\n * @title Ballot.sol: Smart Contract de eleccin de Representante Estudiantil\r\n * @author Camilo Andrs Rodrguez Burgos\r\n * @author Hector Oswaldo Franco Msmela\r\n * @notice Smart Contract de una votacin de Representante\r\n           Estudiantil de la Universidad Piloto de Colombia\r\n */\r\n\r\ncontract Ballot {\r\n    /**\r\n     * @dev Candidate: estructura\r\n     */\r\n    struct Candidate {\r\n        string name;\r\n        uint256 voteCount;\r\n    }\r\n\r\n    /**\r\n     * @dev Voter: estructura\r\n     */\r\n    struct Voter {\r\n        string email;\r\n        // Informacin de la votacin\r\n        bool voted;\r\n        uint256 candidateIndex;\r\n        uint256 weight;\r\n        uint256 voteTimestamp;\r\n    }\r\n\r\n    /**\r\n     * @dev atributos del contrato\r\n     */\r\n    string public name;\r\n    string public proposal;\r\n    address public ballotAdmin;\r\n    uint256 public ballotEnd;\r\n    uint256 public totalVoters;\r\n    uint256 public totalDoneVotes;\r\n\r\n    Candidate[] public candidates;\r\n\r\n    /**\r\n     * @dev Mappings verificadores de los voters\r\n     */\r\n    mapping(address => Voter) private voters;\r\n    mapping(address => bool) private addedVoters;\r\n    mapping(string => bool) private addedEmail;\r\n\r\n    enum State {Initial, Created, Voting, Ended}\r\n\r\n    State public state;\r\n\r\n    /**\r\n     * @dev Eventos del contrato\r\n     */\r\n    event ElectionResult(string name, uint256 voteCount);\r\n    event voterAdded(string voterEmail, address voterAddress);\r\n    event voteStarted(string);\r\n    event voteEnded(string);\r\n    event voteDone(address voter);\r\n    event showWinner(string, uint256 votes);\r\n    event showCertificate(string, uint256);\r\n    event showBallotInfo(string name, string proposal);\r\n \r\n    /**\r\n     * @dev createBallot()\r\n     * @param _name name of the ballot\r\n     * @param _proposal proposal of the ballot\r\n     */\r\n    function createBallot(string memory _name, string memory _proposal)\r\n        public\r\n    {\r\n        require(state == State.Initial, \"Votacin creada previamente\");\r\n        ballotAdmin = msg.sender;\r\n        name = _name;\r\n        proposal = _proposal;\r\n\r\n        totalVoters = 0;\r\n        totalDoneVotes = 0;\r\n        state = State.Created;\r\n    }\r\n\r\n    /**\r\n     * @dev funcin addCandidate()\r\n     * @param _name of the candidate\r\n     */\r\n\r\n    function addCandidate(string memory _name)\r\n        public\r\n        inState(State.Created)\r\n        checkBallotAdmin\r\n    {\r\n        candidates.push(Candidate(_name, 0));\r\n    }\r\n\r\n    /**\r\n     * @dev funcin addCandidate()\r\n     * @param email of the candidate\r\n     */\r\n    function addVoter(string memory email) public inState(State.Created) {\r\n        require(\r\n            !getAddedVoter(msg.sender),\r\n            \"Ya se registr un usuario con el address ingresado\"\r\n        );\r\n        require(!getVoterEmail(email), \"Email registrado previamente\");\r\n        require(!voters[msg.sender].voted, \"El usuario vot previamente\");\r\n\r\n        Voter storage voter = voters[msg.sender];\r\n        voter.email = email;\r\n\r\n        addedVoters[msg.sender] = true;\r\n        addedEmail[email] = true;\r\n\r\n        voters[msg.sender].weight = 1;\r\n\r\n        totalVoters++;\r\n    }\r\n\r\n    /**\r\n     * @dev funcin startBallot()\r\n     * @param durationMinutes Minutes that will be available the contract\r\n     */\r\n    function startBallot(uint256 durationMinutes)\r\n        public\r\n        inState(State.Created)\r\n        checkBallotAdmin\r\n        checkCandidates\r\n    {\r\n        candidates.push(Candidate(\"Voto en blanco\", 0));\r\n        ballotEnd = getTimestamp() + (durationMinutes * 1 minutes);\r\n        state = State.Voting;\r\n        emit voteStarted(\"Votacin iniciada\");\r\n    }\r\n\r\n    /**\r\n     * @dev funcin doVote()\r\n     * @param candidateIndex index of the candidate in the ballot\r\n     */\r\n    function doVote(uint256 candidateIndex) public inState(State.Voting) {\r\n        require(\r\n            getTimestamp() < ballotEnd,\r\n            \"Se pas el tiempo habilitado para votar\"\r\n        );\r\n        require(getAddedVoter(msg.sender), \"No est registrado en la votacin\");\r\n        require(!voters[msg.sender].voted, \"Ya vot previamente\");\r\n\r\n        voters[msg.sender].voted = true;\r\n        voters[msg.sender].candidateIndex = candidateIndex;\r\n        voters[msg.sender].voteTimestamp = getTimestamp();\r\n\r\n        candidates[candidateIndex].voteCount += voters[msg.sender].weight;\r\n        totalDoneVotes++;\r\n        emit voteDone(msg.sender);\r\n    }\r\n\r\n    /**\r\n     * @dev funcin endBallot()\r\n     */\r\n    function endBallot() public inState(State.Voting) checkBallotAdmin {\r\n        require(getTimestamp() >= ballotEnd, \"La votacin an no finaliza\");\r\n        state = State.Ended;\r\n        emit voteEnded(\"Votacin finalizada\");\r\n    }\r\n\r\n    /**\r\n     * @dev funcin getBallotState()\r\n     * @return State of the ballot\r\n     */\r\n    function getBallotState() public view checkBallotAdmin returns (State) {\r\n        return state;\r\n    }\r\n\r\n    /**\r\n     * @dev Calls getWinner() function to get the index of the winner\r\n     * @return tuple(string name of the winner, uint256 voteCount)\r\n     */\r\n    function winnerCandidate()\r\n        public\r\n        view\r\n        inState(State.Ended)\r\n        returns (string memory, uint256)\r\n    {\r\n        Candidate storage winner = candidates[getWinner()];\r\n        return (winner.name, winner.voteCount);\r\n    }\r\n\r\n    /**\r\n     * @dev generates the voter certificate\r\n     */\r\n    function generateCertificate()\r\n        public\r\n        view\r\n        returns (string memory, uint256)\r\n    {\r\n        require(getAddedVoter(msg.sender), \"No est registrado en la votacin\");\r\n        require(\r\n            voters[msg.sender].voted,\r\n            \"Su certificado estar listo una vez haya votado\"\r\n        );\r\n        require(\r\n            state == State.Voting || state == State.Ended,\r\n            \"Espere hasta que la votacin haya iniciado\"\r\n        );\r\n\r\n        return (voters[msg.sender].email, voters[msg.sender].voteTimestamp);\r\n    }\r\n\r\n    /**\r\n     * @dev getTotalVoters()\r\n     * @return uint256 the total registered voters\r\n     */\r\n    function getTotalVoters() public view checkBallotAdmin returns (uint256) {\r\n        return totalVoters;\r\n    }\r\n\r\n    /**\r\n     * @dev getFinalResult()\r\n     */\r\n    function getFinalResult() public inState(State.Ended) {\r\n        require(totalDoneVotes <= totalVoters, \"Votacin corrupta\");\r\n\r\n        for (uint256 i = 0; i < candidates.length; i++) {\r\n            emit ElectionResult(candidates[i].name, candidates[i].voteCount);\r\n        }\r\n    }\r\n\r\n    /**\r\n     * @dev getAddedVoter()\r\n     * @param voterAddress address of the voter\r\n     */\r\n\r\n    function getAddedVoter(address voterAddress) private view returns (bool) {\r\n        return addedVoters[voterAddress];\r\n    }\r\n\r\n    /**\r\n     * @dev getVoterEmail()\r\n     * @param voterEmail email of the voter\r\n     */\r\n    function getVoterEmail(string memory voterEmail)\r\n        private\r\n        view\r\n        returns (bool)\r\n    {\r\n        return addedEmail[voterEmail];\r\n    }\r\n\r\n    /**\r\n     * @dev getTotalCandidates()\r\n     * @return uint256\r\n     */\r\n\r\n    function getTotalCandidates() public view returns (uint256) {\r\n        return candidates.length;\r\n    }\r\n\r\n    function getBallotInfo()\r\n        public\r\n        view\r\n        returns (string memory, string memory)\r\n    {\r\n        return (name, proposal);\r\n    }\r\n\r\n    /**\r\n     * @dev getCandidateName()\r\n     * @return string candidateName\r\n     */\r\n    function getCandidateName(uint256 candidateIndex)\r\n        public\r\n        view\r\n        returns (string memory)\r\n    {\r\n        return candidates[candidateIndex].name;\r\n    }\r\n\r\n    function getContractBalance() public view returns (uint256) {\r\n        return toEther(address(this).balance);\r\n    }\r\n\r\n    function deposit() public payable {\r\n        require(msg.value >= 1 ether, \"No se logr el deposito\");\r\n    }\r\n\r\n    function getAddressBalance(address add) public view returns(uint256) {\r\n        return toEther(address(add).balance);\r\n    }\r\n\r\n    function withdraw() public payable  {\r\n        msg.sender.transfer(1 ether);\r\n    }\r\n\r\n    /**\r\n     * @dev getWinner(): helper function\r\n     * @return winningCandidate (the index of the winner candidate)\r\n     */\r\n\r\n    function getWinner() private view returns (uint256 winningCandidate) {\r\n        uint256 winningVoteCount = 0;\r\n        for (uint256 i = 0; i < candidates.length; i++) {\r\n            if (candidates[i].voteCount > winningVoteCount) {\r\n                winningVoteCount = candidates[i].voteCount;\r\n                winningCandidate = i;\r\n            }\r\n        }\r\n    }\r\n\r\n    function getTimestamp() private view returns (uint256) {\r\n        return now;\r\n    }\r\n\r\n    function toEther(uint256 balance) private pure returns(uint256) {\r\n        return (balance / 1e18);\r\n    }\r\n\r\n    /**\r\n     * @dev Modifier: verifies the correct state of the Ballot\r\n     * @param _state of the ballot\r\n     */\r\n    modifier inState(State _state) {\r\n        require(state == _state, \"No puede modificar el estado de la votacin\");\r\n        _;\r\n    }\r\n\r\n    /**\r\n     * @dev Modifier: verefies that the admin of the Ballot is the same that the one who created the contract\r\n     */\r\n    modifier checkBallotAdmin() {\r\n        require(\r\n            msg.sender == ballotAdmin,\r\n            \"Debe ser el administrador de la votacin\"\r\n        );\r\n        _;\r\n    }\r\n\r\n    /**\r\n     * @dev Modifier: verifies the candidates array is not empty\r\n     */\r\n    modifier checkCandidates() {\r\n        require(candidates.length > 1, \"Debe haber ms de un candidato\");\r\n        _;\r\n    }\r\n}\r\n",
  "sourcePath": "C:\\Users\\HectorDev\\Documents\\VotationUPC\\contracts\\Ballot.sol",
  "compiler": {
    "name": "solc",
    "version": "0.4.25+commit.59dbf8f1.Emscripten.clang"
  },
  "schemaVersion": "2.0.2",
  "updatedAt": "2020-05-03T01:09:09.656Z"
}