{
  "contractName": "Ballot",
  "abi": [
    {
      "constant": true,
      "inputs": [],
      "name": "name",
      "outputs": [
        {
          "name": "",
          "type": "string"
        }
      ],
      "payable": false,
      "stateMutability": "view",
      "type": "function"
    },
    {
      "constant": true,
      "inputs": [],
      "name": "ballotEnd",
      "outputs": [
        {
          "name": "",
          "type": "uint256"
        }
      ],
      "payable": false,
      "stateMutability": "view",
      "type": "function"
    },
    {
      "constant": true,
      "inputs": [
        {
          "name": "",
          "type": "uint256"
        }
      ],
      "name": "candidates",
      "outputs": [
        {
          "name": "name",
          "type": "string"
        },
        {
          "name": "voteCount",
          "type": "uint256"
        }
      ],
      "payable": false,
      "stateMutability": "view",
      "type": "function"
    },
    {
      "constant": true,
      "inputs": [
        {
          "name": "",
          "type": "uint256"
        }
      ],
      "name": "votersAddress",
      "outputs": [
        {
          "name": "",
          "type": "address"
        }
      ],
      "payable": false,
      "stateMutability": "view",
      "type": "function"
    },
    {
      "constant": true,
      "inputs": [],
      "name": "totalVoters",
      "outputs": [
        {
          "name": "",
          "type": "uint256"
        }
      ],
      "payable": false,
      "stateMutability": "view",
      "type": "function"
    },
    {
      "constant": true,
      "inputs": [],
      "name": "proposal",
      "outputs": [
        {
          "name": "",
          "type": "string"
        }
      ],
      "payable": false,
      "stateMutability": "view",
      "type": "function"
    },
    {
      "constant": true,
      "inputs": [],
      "name": "ballotAdmin",
      "outputs": [
        {
          "name": "",
          "type": "address"
        }
      ],
      "payable": false,
      "stateMutability": "view",
      "type": "function"
    },
    {
      "constant": true,
      "inputs": [],
      "name": "state",
      "outputs": [
        {
          "name": "",
          "type": "uint8"
        }
      ],
      "payable": false,
      "stateMutability": "view",
      "type": "function"
    },
    {
      "constant": true,
      "inputs": [],
      "name": "totalDoneVotes",
      "outputs": [
        {
          "name": "",
          "type": "uint256"
        }
      ],
      "payable": false,
      "stateMutability": "view",
      "type": "function"
    },
    {
      "anonymous": false,
      "inputs": [
        {
          "indexed": false,
          "name": "name",
          "type": "string"
        },
        {
          "indexed": false,
          "name": "voteCount",
          "type": "uint256"
        }
      ],
      "name": "ElectionResult",
      "type": "event"
    },
    {
      "anonymous": false,
      "inputs": [
        {
          "indexed": false,
          "name": "voterEmail",
          "type": "string"
        },
        {
          "indexed": false,
          "name": "voterAddress",
          "type": "address"
        }
      ],
      "name": "voterAdded",
      "type": "event"
    },
    {
      "anonymous": false,
      "inputs": [
        {
          "indexed": false,
          "name": "",
          "type": "string"
        }
      ],
      "name": "voteStarted",
      "type": "event"
    },
    {
      "anonymous": false,
      "inputs": [
        {
          "indexed": false,
          "name": "",
          "type": "string"
        }
      ],
      "name": "voteEnded",
      "type": "event"
    },
    {
      "anonymous": false,
      "inputs": [
        {
          "indexed": false,
          "name": "voter",
          "type": "address"
        }
      ],
      "name": "voteDone",
      "type": "event"
    },
    {
      "anonymous": false,
      "inputs": [
        {
          "indexed": false,
          "name": "",
          "type": "string"
        },
        {
          "indexed": false,
          "name": "votes",
          "type": "uint256"
        }
      ],
      "name": "showWinner",
      "type": "event"
    },
    {
      "anonymous": false,
      "inputs": [
        {
          "indexed": false,
          "name": "",
          "type": "string"
        },
        {
          "indexed": false,
          "name": "",
          "type": "uint256"
        }
      ],
      "name": "showCertificate",
      "type": "event"
    },
    {
      "anonymous": false,
      "inputs": [
        {
          "indexed": false,
          "name": "name",
          "type": "string"
        },
        {
          "indexed": false,
          "name": "proposal",
          "type": "string"
        }
      ],
      "name": "showBallotInfo",
      "type": "event"
    },
    {
      "constant": false,
      "inputs": [
        {
          "name": "_name",
          "type": "string"
        },
        {
          "name": "_proposal",
          "type": "string"
        }
      ],
      "name": "createBallot",
      "outputs": [],
      "payable": false,
      "stateMutability": "nonpayable",
      "type": "function"
    },
    {
      "constant": false,
      "inputs": [
        {
          "name": "_name",
          "type": "string"
        }
      ],
      "name": "addCandidate",
      "outputs": [],
      "payable": false,
      "stateMutability": "nonpayable",
      "type": "function"
    },
    {
      "constant": false,
      "inputs": [
        {
          "name": "_email",
          "type": "string"
        }
      ],
      "name": "addVoter",
      "outputs": [],
      "payable": false,
      "stateMutability": "nonpayable",
      "type": "function"
    },
    {
      "constant": false,
      "inputs": [
        {
          "name": "durationMinutes",
          "type": "uint256"
        }
      ],
      "name": "startBallot",
      "outputs": [],
      "payable": false,
      "stateMutability": "nonpayable",
      "type": "function"
    },
    {
      "constant": false,
      "inputs": [
        {
          "name": "candidateIndex",
          "type": "uint256"
        }
      ],
      "name": "doVote",
      "outputs": [],
      "payable": false,
      "stateMutability": "nonpayable",
      "type": "function"
    },
    {
      "constant": false,
      "inputs": [],
      "name": "endBallot",
      "outputs": [],
      "payable": false,
      "stateMutability": "nonpayable",
      "type": "function"
    },
    {
      "constant": true,
      "inputs": [],
      "name": "getBallotState",
      "outputs": [
        {
          "name": "",
          "type": "uint8"
        }
      ],
      "payable": false,
      "stateMutability": "view",
      "type": "function"
    },
    {
      "constant": true,
      "inputs": [],
      "name": "winnerCandidate",
      "outputs": [
        {
          "name": "",
          "type": "string"
        },
        {
          "name": "",
          "type": "uint256"
        }
      ],
      "payable": false,
      "stateMutability": "view",
      "type": "function"
    },
    {
      "constant": true,
      "inputs": [],
      "name": "generateCertificate",
      "outputs": [
        {
          "name": "",
          "type": "string"
        },
        {
          "name": "",
          "type": "uint256"
        }
      ],
      "payable": false,
      "stateMutability": "view",
      "type": "function"
    },
    {
      "constant": true,
      "inputs": [],
      "name": "getTotalVoters",
      "outputs": [
        {
          "name": "",
          "type": "uint256"
        }
      ],
      "payable": false,
      "stateMutability": "view",
      "type": "function"
    },
    {
      "constant": false,
      "inputs": [],
      "name": "getFinalResult",
      "outputs": [],
      "payable": false,
      "stateMutability": "nonpayable",
      "type": "function"
    },
    {
      "constant": true,
      "inputs": [],
      "name": "getTotalCandidates",
      "outputs": [
        {
          "name": "",
          "type": "uint256"
        }
      ],
      "payable": false,
      "stateMutability": "view",
      "type": "function"
    },
    {
      "constant": true,
      "inputs": [],
      "name": "getBallotInfo",
      "outputs": [
        {
          "name": "",
          "type": "string"
        },
        {
          "name": "",
          "type": "string"
        }
      ],
      "payable": false,
      "stateMutability": "view",
      "type": "function"
    },
    {
      "constant": true,
      "inputs": [
        {
          "name": "candidateIndex",
          "type": "uint256"
        }
      ],
      "name": "getCandidateName",
      "outputs": [
        {
          "name": "",
          "type": "string"
        }
      ],
      "payable": false,
      "stateMutability": "view",
      "type": "function"
    },
    {
      "constant": true,
      "inputs": [],
      "name": "getContractBalance",
      "outputs": [
        {
          "name": "",
          "type": "uint256"
        }
      ],
      "payable": false,
      "stateMutability": "view",
      "type": "function"
    },
    {
      "constant": false,
      "inputs": [],
      "name": "deposit",
      "outputs": [],
      "payable": true,
      "stateMutability": "payable",
      "type": "function"
    },
    {
      "constant": true,
      "inputs": [
        {
          "name": "add",
          "type": "address"
        }
      ],
      "name": "getAddressBalance",
      "outputs": [
        {
          "name": "",
          "type": "uint256"
        }
      ],
      "payable": false,
      "stateMutability": "view",
      "type": "function"
    },
    {
      "constant": false,
      "inputs": [],
      "name": "withdraw",
      "outputs": [],
      "payable": true,
      "stateMutability": "payable",
      "type": "function"
    }
  ],
  "bytecode": "0x608060405234801561001057600080fd5b50612fcc806100206000396000f30060806040526004361061015f576000357c0100000000000000000000000000000000000000000000000000000000900463ffffffff16806306fdde03146101645780630deb56ab146101f4578063124258c61461021f57806318034fe41461024c5780633400ba11146102795780633477ee2e146102a457806335046722146103515780633a47cb60146103a85780633c6e5310146103bf5780633ccfd60b146103d657806343242daa146103e0578063462e91ec1461044d5780635f180fa9146104b65780635f5300ff1461054d5780636f9fb98a146105785780636fa4f103146105a3578063753ec10314610652578063793cf218146106e2578063a15148d11461070d578063a8aa3b0e146107a4578063aca84892146107fb578063bd6fb43714610864578063c19d93fb1461089d578063d0e30db0146108d6578063e13804a7146108e0578063f48c31e914610986578063f767b1ca146109b1575b600080fd5b34801561017057600080fd5b50610179610aad565b6040518080602001828103825283818151815260200191508051906020019080838360005b838110156101b957808201518184015260208101905061019e565b50505050905090810190601f1680156101e65780820380516001836020036101000a031916815260200191505b509250505060405180910390f35b34801561020057600080fd5b50610209610b4b565b6040518082815260200191505060405180910390f35b34801561022b57600080fd5b5061024a60048036038101908080359060200190929190505050610b58565b005b34801561025857600080fd5b5061027760048036038101908080359060200190929190505050611003565b005b34801561028557600080fd5b5061028e611374565b6040518082815260200191505060405180910390f35b3480156102b057600080fd5b506102cf6004803603810190808035906020019092919050505061137a565b6040518080602001838152602001828103825284818151815260200191508051906020019080838360005b838110156103155780820151818401526020810190506102fa565b50505050905090810190601f1680156103425780820380516001836020036101000a031916815260200191505b50935050505060405180910390f35b34801561035d57600080fd5b50610392600480360381019080803573ffffffffffffffffffffffffffffffffffffffff169060200190929190505050611445565b6040518082815260200191505060405180910390f35b3480156103b457600080fd5b506103bd61146e565b005b3480156103cb57600080fd5b506103d461172d565b005b6103de611992565b005b3480156103ec57600080fd5b5061040b600480360381019080803590602001909291905050506119e3565b604051808273ffffffffffffffffffffffffffffffffffffffff1673ffffffffffffffffffffffffffffffffffffffff16815260200191505060405180910390f35b34801561045957600080fd5b506104b4600480360381019080803590602001908201803590602001908080601f0160208091040260200160405190810160405280939291908181526020018383808284378201915050505050509192919290505050611a21565b005b3480156104c257600080fd5b506104cb611c41565b6040518080602001838152602001828103825284818151815260200191508051906020019080838360005b838110156105115780820151818401526020810190506104f6565b50505050905090810190601f16801561053e5780820380516001836020036101000a031916815260200191505b50935050505060405180910390f35b34801561055957600080fd5b50610562611fed565b6040518082815260200191505060405180910390f35b34801561058457600080fd5b5061058d611ff3565b6040518082815260200191505060405180910390f35b3480156105af57600080fd5b50610650600480360381019080803590602001908201803590602001908080601f0160208091040260200160405190810160405280939291908181526020018383808284378201915050505050509192919290803590602001908201803590602001908080601f016020809104026020016040519081016040528093929190818152602001838380828437820191505050505050919291929050505061201a565b005b34801561065e57600080fd5b5061066761215e565b6040518080602001828103825283818151815260200191508051906020019080838360005b838110156106a757808201518184015260208101905061068c565b50505050905090810190601f1680156106d45780820380516001836020036101000a031916815260200191505b509250505060405180910390f35b3480156106ee57600080fd5b506106f76121fc565b6040518082815260200191505060405180910390f35b34801561071957600080fd5b506107226122f1565b6040518080602001838152602001828103825284818151815260200191508051906020019080838360005b8381101561076857808201518184015260208101905061074d565b50505050905090810190601f1680156107955780820380516001836020036101000a031916815260200191505b50935050505060405180910390f35b3480156107b057600080fd5b506107b961248f565b604051808273ffffffffffffffffffffffffffffffffffffffff1673ffffffffffffffffffffffffffffffffffffffff16815260200191505060405180910390f35b34801561080757600080fd5b50610862600480360381019080803590602001908201803590602001908080601f01602080910402602001604051908101604052809392919081815260200183838082843782019150505050505091929192905050506124b5565b005b34801561087057600080fd5b5061087961295d565b6040518082600381111561088957fe5b60ff16815260200191505060405180910390f35b3480156108a957600080fd5b506108b2612a5f565b604051808260038111156108c257fe5b60ff16815260200191505060405180910390f35b6108de612a72565b005b3480156108ec57600080fd5b5061090b60048036038101908080359060200190929190505050612af4565b6040518080602001828103825283818151815260200191508051906020019080838360005b8381101561094b578082015181840152602081019050610930565b50505050905090810190601f1680156109785780820380516001836020036101000a031916815260200191505b509250505060405180910390f35b34801561099257600080fd5b5061099b612bb6565b6040518082815260200191505060405180910390f35b3480156109bd57600080fd5b506109c6612bbc565b604051808060200180602001838103835285818151815260200191508051906020019080838360005b83811015610a0a5780820151818401526020810190506109ef565b50505050905090810190601f168015610a375780820380516001836020036101000a031916815260200191505b50838103825284818151815260200191508051906020019080838360005b83811015610a70578082015181840152602081019050610a55565b50505050905090810190601f168015610a9d5780820380516001836020036101000a031916815260200191505b5094505050505060405180910390f35b60008054600181600116156101000203166002900480601f016020809104026020016040519081016040528092919081815260200182805460018160011615610100020316600290048015610b435780601f10610b1857610100808354040283529160200191610b43565b820191906000526020600020905b815481529060010190602001808311610b2657829003601f168201915b505050505081565b6000600680549050905090565b6002806003811115610b6657fe5b600b60009054906101000a900460ff166003811115610b8157fe5b141515610c1c576040517f08c379a000000000000000000000000000000000000000000000000000000000815260040180806020018281038252602c8152602001807f4e6f207075656465206d6f6469666963617220656c2065737461646f2064652081526020017f6c6120766f74616369c3b36e000000000000000000000000000000000000000081525060400191505060405180910390fd5b600354610c27612d03565b101515610cc2576040517f08c379a00000000000000000000000000000000000000000000000000000000081526004018080602001828103825260288152602001807f536520706173c3b320656c207469656d706f20686162696c697461646f20706181526020017f726120766f74617200000000000000000000000000000000000000000000000081525060400191505060405180910390fd5b610ccb33612d0b565b1515610d65576040517f08c379a00000000000000000000000000000000000000000000000000000000081526004018080602001828103825260238152602001807f4e6f20657374c3a1207265676973747261646f20656e206c6120766f7461636981526020017fc3b36e000000000000000000000000000000000000000000000000000000000081525060400191505060405180910390fd5b600860003373ffffffffffffffffffffffffffffffffffffffff1673ffffffffffffffffffffffffffffffffffffffff16815260200190815260200160002060010160009054906101000a900460ff16151515610e2a576040517f08c379a00000000000000000000000000000000000000000000000000000000081526004018080602001828103825260148152602001807f596120766f74c3b3207072657669616d656e746500000000000000000000000081525060200191505060405180910390fd5b6001600860003373ffffffffffffffffffffffffffffffffffffffff1673ffffffffffffffffffffffffffffffffffffffff16815260200190815260200160002060010160006101000a81548160ff02191690831515021790555081600860003373ffffffffffffffffffffffffffffffffffffffff1673ffffffffffffffffffffffffffffffffffffffff16815260200190815260200160002060020181905550610ed4612d03565b600860003373ffffffffffffffffffffffffffffffffffffffff1673ffffffffffffffffffffffffffffffffffffffff16815260200190815260200160002060040181905550600860003373ffffffffffffffffffffffffffffffffffffffff1673ffffffffffffffffffffffffffffffffffffffff16815260200190815260200160002060030154600683815481101515610f6c57fe5b9060005260206000209060020201600101600082825401925050819055506005600081548092919060010191905055507f55c65cf9526efdf6c2252fe9757889dbd93e10172cad0f2edb1df619c88dbf7d33604051808273ffffffffffffffffffffffffffffffffffffffff1673ffffffffffffffffffffffffffffffffffffffff16815260200191505060405180910390a15050565b600180600381111561101157fe5b600b60009054906101000a900460ff16600381111561102c57fe5b1415156110c7576040517f08c379a000000000000000000000000000000000000000000000000000000000815260040180806020018281038252602c8152602001807f4e6f207075656465206d6f6469666963617220656c2065737461646f2064652081526020017f6c6120766f74616369c3b36e000000000000000000000000000000000000000081525060400191505060405180910390fd5b600260009054906101000a900473ffffffffffffffffffffffffffffffffffffffff1673ffffffffffffffffffffffffffffffffffffffff163373ffffffffffffffffffffffffffffffffffffffff161415156111b2576040517f08c379a00000000000000000000000000000000000000000000000000000000081526004018080602001828103825260298152602001807f446562652073657220656c2061646d696e6973747261646f72206465206c612081526020017f766f74616369c3b36e000000000000000000000000000000000000000000000081525060400191505060405180910390fd5b600160068054905011151561122f576040517f08c379a000000000000000000000000000000000000000000000000000000000815260040180806020018281038252601f8152602001807f44656265206861626572206dc3a17320646520756e2063616e64696461746f0081525060200191505060405180910390fd5b600660408051908101604052806040805190810160405280600e81526020017f566f746f20656e20626c616e636f000000000000000000000000000000000000815250815260200160008152509080600181540180825580915050906001820390600052602060002090600202016000909192909190915060008201518160000190805190602001906112c3929190612e7b565b5060208201518160010155505050603c82026112dd612d03565b016003819055506002600b60006101000a81548160ff0219169083600381111561130357fe5b02179055507f45ae8e5a983b405c50a629696a5fd665365e15f9c4fa5dbc947e035891e4dde16040518080602001828103825260128152602001807f566f74616369c3b36e20696e696369616461000000000000000000000000000081525060200191505060405180910390a15050565b60035481565b60068181548110151561138957fe5b9060005260206000209060020201600091509050806000018054600181600116156101000203166002900480601f0160208091040260200160405190810160405280929190818152602001828054600181600116156101000203166002900480156114355780601f1061140a57610100808354040283529160200191611435565b820191906000526020600020905b81548152906001019060200180831161141857829003601f168201915b5050505050908060010154905082565b60006114678273ffffffffffffffffffffffffffffffffffffffff1631612d61565b9050919050565b600280600381111561147c57fe5b600b60009054906101000a900460ff16600381111561149757fe5b141515611532576040517f08c379a000000000000000000000000000000000000000000000000000000000815260040180806020018281038252602c8152602001807f4e6f207075656465206d6f6469666963617220656c2065737461646f2064652081526020017f6c6120766f74616369c3b36e000000000000000000000000000000000000000081525060400191505060405180910390fd5b600260009054906101000a900473ffffffffffffffffffffffffffffffffffffffff1673ffffffffffffffffffffffffffffffffffffffff163373ffffffffffffffffffffffffffffffffffffffff1614151561161d576040517f08c379a00000000000000000000000000000000000000000000000000000000081526004018080602001828103825260298152602001807f446562652073657220656c2061646d696e6973747261646f72206465206c612081526020017f766f74616369c3b36e000000000000000000000000000000000000000000000081525060400191505060405180910390fd5b600354611628612d03565b1015151561169e576040517f08c379a000000000000000000000000000000000000000000000000000000000815260040180806020018281038252601d8152602001807f4c6120766f74616369c3b36e2061c3ba6e206e6f2066696e616c697a6100000081525060200191505060405180910390fd5b6003600b60006101000a81548160ff021916908360038111156116bd57fe5b02179055507f1c9db16d4f54d3a4e1f06123c554022a9f3f0357d24c7de3780857ddc4de92446040518080602001828103825260148152602001807f566f74616369c3b36e2066696e616c697a61646100000000000000000000000081525060200191505060405180910390a150565b6000600380600381111561173d57fe5b600b60009054906101000a900460ff16600381111561175857fe5b1415156117f3576040517f08c379a000000000000000000000000000000000000000000000000000000000815260040180806020018281038252602c8152602001807f4e6f207075656465206d6f6469666963617220656c2065737461646f2064652081526020017f6c6120766f74616369c3b36e000000000000000000000000000000000000000081525060400191505060405180910390fd5b6004546005541115151561186f576040517f08c379a00000000000000000000000000000000000000000000000000000000081526004018080602001828103825260128152602001807f566f74616369c3b36e20636f727275707461000000000000000000000000000081525060200191505060405180910390fd5b600091505b60068054905082101561198e577f156b5ffaa1a96772b4d324b6a0492ba5c51abe8a2818c38a0d409faddb63578c6006838154811015156118b157fe5b90600052602060002090600202016000016006848154811015156118d157fe5b90600052602060002090600202016001015460405180806020018381526020018281038252848181546001816001161561010002031660029004815260200191508054600181600116156101000203166002900480156119725780601f1061194757610100808354040283529160200191611972565b820191906000526020600020905b81548152906001019060200180831161195557829003601f168201915b5050935050505060405180910390a18180600101925050611874565b5050565b3373ffffffffffffffffffffffffffffffffffffffff166108fc670de0b6b3a76400009081150290604051600060405180830381858888f193505050501580156119e0573d6000803e3d6000fd5b50565b6007818154811015156119f257fe5b906000526020600020016000915054906101000a900473ffffffffffffffffffffffffffffffffffffffff1681565b6001806003811115611a2f57fe5b600b60009054906101000a900460ff166003811115611a4a57fe5b141515611ae5576040517f08c379a000000000000000000000000000000000000000000000000000000000815260040180806020018281038252602c8152602001807f4e6f207075656465206d6f6469666963617220656c2065737461646f2064652081526020017f6c6120766f74616369c3b36e000000000000000000000000000000000000000081525060400191505060405180910390fd5b600260009054906101000a900473ffffffffffffffffffffffffffffffffffffffff1673ffffffffffffffffffffffffffffffffffffffff163373ffffffffffffffffffffffffffffffffffffffff16141515611bd0576040517f08c379a00000000000000000000000000000000000000000000000000000000081526004018080602001828103825260298152602001807f446562652073657220656c2061646d696e6973747261646f72206465206c612081526020017f766f74616369c3b36e000000000000000000000000000000000000000000000081525060400191505060405180910390fd5b600660408051908101604052808481526020016000815250908060018154018082558091505090600182039060005260206000209060020201600090919290919091506000820151816000019080519060200190611c2f929190612e7b565b50602082015181600101555050505050565b60606000611c4e33612d0b565b1515611ce8576040517f08c379a00000000000000000000000000000000000000000000000000000000081526004018080602001828103825260238152602001807f4e6f20657374c3a1207265676973747261646f20656e206c6120766f7461636981526020017fc3b36e000000000000000000000000000000000000000000000000000000000081525060400191505060405180910390fd5b600860003373ffffffffffffffffffffffffffffffffffffffff1673ffffffffffffffffffffffffffffffffffffffff16815260200190815260200160002060010160009054906101000a900460ff161515611dd2576040517f08c379a00000000000000000000000000000000000000000000000000000000081526004018080602001828103825260308152602001807f537520636572746966696361646f206573746172c3a1206c6973746f20756e6181526020017f2076657a206861796120766f7461646f0000000000000000000000000000000081525060400191505060405180910390fd5b60026003811115611ddf57fe5b600b60009054906101000a900460ff166003811115611dfa57fe5b1480611e2a5750600380811115611e0d57fe5b600b60009054906101000a900460ff166003811115611e2857fe5b145b1515611ec4576040517f08c379a000000000000000000000000000000000000000000000000000000000815260040180806020018281038252602b8152602001807f45737065726520686173746120717565206c6120766f74616369c3b36e20686181526020017f796120696e69636961646f00000000000000000000000000000000000000000081525060400191505060405180910390fd5b600860003373ffffffffffffffffffffffffffffffffffffffff1673ffffffffffffffffffffffffffffffffffffffff168152602001908152602001600020600001600860003373ffffffffffffffffffffffffffffffffffffffff1673ffffffffffffffffffffffffffffffffffffffff16815260200190815260200160002060040154818054600181600116156101000203166002900480601f016020809104026020016040519081016040528092919081815260200182805460018160011615610100020316600290048015611fde5780601f10611fb357610100808354040283529160200191611fde565b820191906000526020600020905b815481529060010190602001808311611fc157829003601f168201915b50505050509150915091509091565b60045481565b60006120153073ffffffffffffffffffffffffffffffffffffffff1631612d61565b905090565b6000600381111561202757fe5b600b60009054906101000a900460ff16600381111561204257fe5b1415156120b7576040517f08c379a000000000000000000000000000000000000000000000000000000000815260040180806020018281038252601c8152602001807f566f74616369c3b36e20637265616461207072657669616d656e74650000000081525060200191505060405180910390fd5b33600260006101000a81548173ffffffffffffffffffffffffffffffffffffffff021916908373ffffffffffffffffffffffffffffffffffffffff160217905550816000908051906020019061210e929190612efb565b508060019080519060200190612125929190612efb565b50600060048190555060006005819055506001600b60006101000a81548160ff0219169083600381111561215557fe5b02179055505050565b60018054600181600116156101000203166002900480601f0160208091040260200160405190810160405280929190818152602001828054600181600116156101000203166002900480156121f45780601f106121c9576101008083540402835291602001916121f4565b820191906000526020600020905b8154815290600101906020018083116121d757829003601f168201915b505050505081565b6000600260009054906101000a900473ffffffffffffffffffffffffffffffffffffffff1673ffffffffffffffffffffffffffffffffffffffff163373ffffffffffffffffffffffffffffffffffffffff161415156122e9576040517f08c379a00000000000000000000000000000000000000000000000000000000081526004018080602001828103825260298152602001807f446562652073657220656c2061646d696e6973747261646f72206465206c612081526020017f766f74616369c3b36e000000000000000000000000000000000000000000000081525060400191505060405180910390fd5b600454905090565b6060600080600380600381111561230457fe5b600b60009054906101000a900460ff16600381111561231f57fe5b1415156123ba576040517f08c379a000000000000000000000000000000000000000000000000000000000815260040180806020018281038252602c8152602001807f4e6f207075656465206d6f6469666963617220656c2065737461646f2064652081526020017f6c6120766f74616369c3b36e000000000000000000000000000000000000000081525060400191505060405180910390fd5b60066123c4612d7e565b8154811015156123d057fe5b90600052602060002090600202019150816000018260010154818054600181600116156101000203166002900480601f01602080910402602001604051908101604052809291908181526020018280546001816001161561010002031660029004801561247e5780601f106124535761010080835404028352916020019161247e565b820191906000526020600020905b81548152906001019060200180831161246157829003601f168201915b505050505091509350935050509091565b600260009054906101000a900473ffffffffffffffffffffffffffffffffffffffff1681565b600060028060038111156124c557fe5b600b60009054906101000a900460ff1660038111156124e057fe5b14151561257b576040517f08c379a000000000000000000000000000000000000000000000000000000000815260040180806020018281038252602c8152602001807f4e6f207075656465206d6f6469666963617220656c2065737461646f2064652081526020017f6c6120766f74616369c3b36e000000000000000000000000000000000000000081525060400191505060405180910390fd5b61258433612d0b565b15151561261f576040517f08c379a00000000000000000000000000000000000000000000000000000000081526004018080602001828103825260338152602001807f59612073652072656769737472c3b320756e207573756172696f20636f6e206581526020017f6c206164647265737320696e6772657361646f0000000000000000000000000081525060400191505060405180910390fd5b61262883612df9565b15151561269d576040517f08c379a000000000000000000000000000000000000000000000000000000000815260040180806020018281038252601c8152602001807f456d61696c207265676973747261646f207072657669616d656e74650000000081525060200191505060405180910390fd5b600860003373ffffffffffffffffffffffffffffffffffffffff1673ffffffffffffffffffffffffffffffffffffffff16815260200190815260200160002060010160009054906101000a900460ff16151515612762576040517f08c379a000000000000000000000000000000000000000000000000000000000815260040180806020018281038252601c8152602001807f456c207573756172696f20766f74c3b3207072657669616d656e74650000000081525060200191505060405180910390fd5b600860003373ffffffffffffffffffffffffffffffffffffffff1673ffffffffffffffffffffffffffffffffffffffff1681526020019081526020016000209150828260000190805190602001906127bb929190612efb565b506001600960003373ffffffffffffffffffffffffffffffffffffffff1673ffffffffffffffffffffffffffffffffffffffff16815260200190815260200160002060006101000a81548160ff0219169083151502179055506001600a846040518082805190602001908083835b60208310151561284e5780518252602082019150602081019050602083039250612829565b6001836020036101000a038019825116818451168082178552505050505050905001915050908152602001604051809103902060006101000a81548160ff0219169083151502179055506001600860003373ffffffffffffffffffffffffffffffffffffffff1673ffffffffffffffffffffffffffffffffffffffff1681526020019081526020016000206003018190555060073390806001815401808255809150509060018203906000526020600020016000909192909190916101000a81548173ffffffffffffffffffffffffffffffffffffffff021916908373ffffffffffffffffffffffffffffffffffffffff16021790555050600460008154809291906001019190505550505050565b6000600260009054906101000a900473ffffffffffffffffffffffffffffffffffffffff1673ffffffffffffffffffffffffffffffffffffffff163373ffffffffffffffffffffffffffffffffffffffff16141515612a4a576040517f08c379a00000000000000000000000000000000000000000000000000000000081526004018080602001828103825260298152602001807f446562652073657220656c2061646d696e6973747261646f72206465206c612081526020017f766f74616369c3b36e000000000000000000000000000000000000000000000081525060400191505060405180910390fd5b600b60009054906101000a900460ff16905090565b600b60009054906101000a900460ff1681565b670de0b6b3a76400003410151515612af2576040517f08c379a00000000000000000000000000000000000000000000000000000000081526004018080602001828103825260188152602001807f4e6f207365206c6f6772c3b320656c206465706f7369746f000000000000000081525060200191505060405180910390fd5b565b6060600682815481101515612b0557fe5b90600052602060002090600202016000018054600181600116156101000203166002900480601f016020809104026020016040519081016040528092919081815260200182805460018160011615610100020316600290048015612baa5780601f10612b7f57610100808354040283529160200191612baa565b820191906000526020600020905b815481529060010190602001808311612b8d57829003601f168201915b50505050509050919050565b60055481565b60608060006001818054600181600116156101000203166002900480601f016020809104026020016040519081016040528092919081815260200182805460018160011615610100020316600290048015612c585780601f10612c2d57610100808354040283529160200191612c58565b820191906000526020600020905b815481529060010190602001808311612c3b57829003601f168201915b50505050509150808054600181600116156101000203166002900480601f016020809104026020016040519081016040528092919081815260200182805460018160011615610100020316600290048015612cf45780601f10612cc957610100808354040283529160200191612cf4565b820191906000526020600020905b815481529060010190602001808311612cd757829003601f168201915b50505050509050915091509091565b600042905090565b6000600960008373ffffffffffffffffffffffffffffffffffffffff1673ffffffffffffffffffffffffffffffffffffffff16815260200190815260200160002060009054906101000a900460ff169050919050565b6000670de0b6b3a764000082811515612d7657fe5b049050919050565b6000806000809150600090505b600680549050811015612df45781600682815481101515612da857fe5b9060005260206000209060020201600101541115612de757600681815481101515612dcf57fe5b90600052602060002090600202016001015491508092505b8080600101915050612d8b565b505090565b6000600a826040518082805190602001908083835b602083101515612e335780518252602082019150602081019050602083039250612e0e565b6001836020036101000a038019825116818451168082178552505050505050905001915050908152602001604051809103902060009054906101000a900460ff169050919050565b828054600181600116156101000203166002900490600052602060002090601f016020900481019282601f10612ebc57805160ff1916838001178555612eea565b82800160010185558215612eea579182015b82811115612ee9578251825591602001919060010190612ece565b5b509050612ef79190612f7b565b5090565b828054600181600116156101000203166002900490600052602060002090601f016020900481019282601f10612f3c57805160ff1916838001178555612f6a565b82800160010185558215612f6a579182015b82811115612f69578251825591602001919060010190612f4e565b5b509050612f779190612f7b565b5090565b612f9d91905b80821115612f99576000816000905550600101612f81565b5090565b905600a165627a7a723058202983f9d37ea19ce834677ea0eef20a52300c0b2913280b8c0803dfae6fdb46800029",
  "source": "// pragma solidity >=0.4.22 <0.7.0;\r\npragma solidity ^0.4.24;\r\n\r\n\r\n/**\r\n * @title Ballot.sol: Smart Contract de eleccin de Representante Estudiantil\r\n * @author Camilo Andrs Rodrguez Burgos\r\n * @author Hector Oswaldo Franco Msmela\r\n * @notice Smart Contract de una votacin de Representante\r\n           Estudiantil de la Universidad Piloto de Colombia\r\n */\r\n\r\ncontract Ballot {\r\n    /**\r\n     * @dev Candidate: estructura\r\n     */\r\n    struct Candidate {\r\n        string name;\r\n        uint256 voteCount;\r\n    }\r\n\r\n    /**\r\n     * @dev Voter: estructura\r\n     */\r\n    struct Voter {\r\n        string email;\r\n        // Informacin de la votacin\r\n        bool voted;\r\n        uint256 candidateIndex;\r\n        uint256 weight;\r\n        uint256 voteTimestamp;\r\n    }\r\n\r\n    /**\r\n     * @dev atributos del contrato\r\n     */\r\n    string public name;\r\n    string public proposal;\r\n    address public ballotAdmin;\r\n    uint256 public ballotEnd;\r\n    uint256 public totalVoters;\r\n    uint256 public totalDoneVotes;\r\n\r\n    Candidate[] public candidates;\r\n    address[] public votersAddress;\r\n\r\n    /**\r\n     * @dev Mappings verificadores de los voters\r\n     */\r\n    mapping(address => Voter) private voters;\r\n    mapping(address => bool) private addedVoters;\r\n    mapping(string => bool) private addedEmail;\r\n\r\n    enum State {Initial, Created, Voting, Ended}\r\n\r\n    State public state;\r\n\r\n    /**\r\n     * @dev Eventos del contrato\r\n     */\r\n    event ElectionResult(string name, uint256 voteCount);\r\n    event voterAdded(string voterEmail, address voterAddress);\r\n    event voteStarted(string);\r\n    event voteEnded(string);\r\n    event voteDone(address voter);\r\n    event showWinner(string, uint256 votes);\r\n    event showCertificate(string, uint256);\r\n    event showBallotInfo(string name, string proposal);\r\n\r\n    /**\r\n     * @dev createBallot()\r\n     * @param _name name of the ballot\r\n     * @param _proposal proposal of the ballot\r\n     */\r\n    function createBallot(string memory _name, string memory _proposal) public {\r\n        require(state == State.Initial, \"Votacin creada previamente\");\r\n        ballotAdmin = msg.sender;\r\n        name = _name;\r\n        proposal = _proposal;\r\n\r\n        totalVoters = 0;\r\n        totalDoneVotes = 0;\r\n        state = State.Created;\r\n    }\r\n\r\n    /**\r\n     * @dev funcin addCandidate()\r\n     * @param _name of the candidate\r\n     */\r\n\r\n    function addCandidate(string memory _name)\r\n        public\r\n        inState(State.Created)\r\n        checkBallotAdmin\r\n    {\r\n        candidates.push(Candidate(_name, 0));\r\n    }\r\n\r\n    /**\r\n     * @dev funcin addCandidate()\r\n     * @param _email of the candidate\r\n     */\r\n    function addVoter(string memory _email) public inState(State.Voting) {\r\n        require(\r\n            !getAddedVoter(msg.sender),\r\n            \"Ya se registr un usuario con el address ingresado\"\r\n        );\r\n        require(!getVoterEmail(_email), \"Email registrado previamente\");\r\n\r\n        require(!voters[msg.sender].voted, \"El usuario vot previamente\");\r\n\r\n        Voter storage voter = voters[msg.sender];\r\n        voter.email = _email;\r\n\r\n        addedVoters[msg.sender] = true;\r\n        addedEmail[_email] = true;\r\n\r\n        voters[msg.sender].weight = 1;\r\n\r\n        votersAddress.push(msg.sender);\r\n        totalVoters++;\r\n    }\r\n\r\n    /**\r\n     * @dev funcin startBallot()\r\n     * @param durationMinutes Minutes that will be available the contract\r\n     */\r\n    function startBallot(uint256 durationMinutes)\r\n        public\r\n        inState(State.Created)\r\n        checkBallotAdmin\r\n        checkCandidates\r\n    {\r\n        candidates.push(Candidate(\"Voto en blanco\", 0));\r\n        ballotEnd = getTimestamp() + (durationMinutes * 1 minutes);\r\n        state = State.Voting;\r\n        emit voteStarted(\"Votacin iniciada\");\r\n    }\r\n\r\n    /**\r\n     * @dev funcin doVote()\r\n     * @param candidateIndex index of the candidate in the ballot\r\n     */\r\n    function doVote(uint256 candidateIndex) public inState(State.Voting) {\r\n        require(\r\n            getTimestamp() < ballotEnd,\r\n            \"Se pas el tiempo habilitado para votar\"\r\n        );\r\n        require(getAddedVoter(msg.sender), \"No est registrado en la votacin\");\r\n        require(!voters[msg.sender].voted, \"Ya vot previamente\");\r\n\r\n        voters[msg.sender].voted = true;\r\n        voters[msg.sender].candidateIndex = candidateIndex;\r\n        voters[msg.sender].voteTimestamp = getTimestamp();\r\n\r\n        candidates[candidateIndex].voteCount += voters[msg.sender].weight;\r\n        totalDoneVotes++;\r\n        emit voteDone(msg.sender);\r\n    }\r\n\r\n    /**\r\n     * @dev funcin endBallot()\r\n     */\r\n    function endBallot() public inState(State.Voting) checkBallotAdmin {\r\n        require(getTimestamp() >= ballotEnd, \"La votacin an no finaliza\");\r\n        state = State.Ended;\r\n        emit voteEnded(\"Votacin finalizada\");\r\n    }\r\n\r\n    /**\r\n     * @dev funcin getBallotState()\r\n     * @return State of the ballot\r\n     */\r\n    function getBallotState() public view checkBallotAdmin returns (State) {\r\n        return state;\r\n    }\r\n\r\n    /**\r\n     * @dev Calls getWinner() function to get the index of the winner\r\n     * @return tuple(string name of the winner, uint256 voteCount)\r\n     */\r\n    function winnerCandidate()\r\n        public\r\n        view\r\n        inState(State.Ended)\r\n        returns (string memory, uint256)\r\n    {\r\n        Candidate storage winner = candidates[getWinner()];\r\n        return (winner.name, winner.voteCount);\r\n    }\r\n\r\n    /**\r\n     * @dev generates the voter certificate\r\n     */\r\n    function generateCertificate()\r\n        public\r\n        view\r\n        returns (string memory, uint256)\r\n    {\r\n        require(getAddedVoter(msg.sender), \"No est registrado en la votacin\");\r\n        require(\r\n            voters[msg.sender].voted,\r\n            \"Su certificado estar listo una vez haya votado\"\r\n        );\r\n        require(\r\n            state == State.Voting || state == State.Ended,\r\n            \"Espere hasta que la votacin haya iniciado\"\r\n        );\r\n\r\n        return (voters[msg.sender].email, voters[msg.sender].voteTimestamp);\r\n    }\r\n\r\n    /**\r\n     * @dev getTotalVoters()\r\n     * @return uint256 the total registered voters\r\n     */\r\n    function getTotalVoters() public view checkBallotAdmin returns (uint256) {\r\n        return totalVoters;\r\n    }\r\n\r\n    /**\r\n     * @dev getFinalResult()\r\n     */\r\n    function getFinalResult() public inState(State.Ended) {\r\n        require(totalDoneVotes <= totalVoters, \"Votacin corrupta\");\r\n\r\n        for (uint256 i = 0; i < candidates.length; i++) {\r\n            emit ElectionResult(candidates[i].name, candidates[i].voteCount);\r\n        }\r\n    }\r\n\r\n    /**\r\n     * @dev getAddedVoter()\r\n     * @param voterAddress address of the voter\r\n     */\r\n\r\n    function getAddedVoter(address voterAddress) private view returns (bool) {\r\n        return addedVoters[voterAddress];\r\n    }\r\n\r\n    /**\r\n     * @dev getVoterEmail()\r\n     * @param voterEmail email of the voter\r\n     */\r\n    function getVoterEmail(string memory voterEmail)\r\n        private\r\n        view\r\n        returns (bool)\r\n    {\r\n        return addedEmail[voterEmail];\r\n    }\r\n\r\n    /**\r\n     * @dev getTotalCandidates()\r\n     * @return uint256\r\n     */\r\n\r\n    function getTotalCandidates() public view returns (uint256) {\r\n        return candidates.length;\r\n    }\r\n\r\n    function getBallotInfo()\r\n        public\r\n        view\r\n        returns (string memory, string memory)\r\n    {\r\n        return (name, proposal);\r\n    }\r\n\r\n    /**\r\n     * @dev getCandidateName()\r\n     * @return string candidateName\r\n     */\r\n    function getCandidateName(uint256 candidateIndex)\r\n        public\r\n        view\r\n        returns (string memory)\r\n    {\r\n        return candidates[candidateIndex].name;\r\n    }\r\n\r\n    function getContractBalance() public view returns (uint256) {\r\n        return toEther(address(this).balance);\r\n    }\r\n\r\n    function deposit() public payable {\r\n        require(msg.value >= 1 ether, \"No se logr el deposito\");\r\n    }\r\n\r\n    function getAddressBalance(address add) public view returns (uint256) {\r\n        return toEther(address(add).balance);\r\n    }\r\n\r\n    function withdraw() public payable {\r\n        msg.sender.transfer(1 ether);\r\n    }\r\n\r\n    /**\r\n     * @dev getWinner(): helper function\r\n     * @return winningCandidate (the index of the winner candidate)\r\n     */\r\n\r\n    function getWinner() private view returns (uint256 winningCandidate) {\r\n        uint256 winningVoteCount = 0;\r\n        for (uint256 i = 0; i < candidates.length; i++) {\r\n            if (candidates[i].voteCount > winningVoteCount) {\r\n                winningVoteCount = candidates[i].voteCount;\r\n                winningCandidate = i;\r\n            }\r\n        }\r\n    }\r\n\r\n    function getTimestamp() private view returns (uint256) {\r\n        return now;\r\n    }\r\n\r\n    function toEther(uint256 balance) private pure returns (uint256) {\r\n        return (balance / 1e18);\r\n    }\r\n\r\n    /**\r\n     * @dev Modifier: verifies the correct state of the Ballot\r\n     * @param _state of the ballot\r\n     */\r\n    modifier inState(State _state) {\r\n        require(state == _state, \"No puede modificar el estado de la votacin\");\r\n        _;\r\n    }\r\n\r\n    /**\r\n     * @dev Modifier: verefies that the admin of the Ballot is the same that the one who created the contract\r\n     */\r\n    modifier checkBallotAdmin() {\r\n        require(\r\n            msg.sender == ballotAdmin,\r\n            \"Debe ser el administrador de la votacin\"\r\n        );\r\n        _;\r\n    }\r\n\r\n    /**\r\n     * @dev Modifier: verifies the candidates array is not empty\r\n     */\r\n    modifier checkCandidates() {\r\n        require(candidates.length > 1, \"Debe haber ms de un candidato\");\r\n        _;\r\n    }\r\n}\r\n",
  "sourcePath": "C:\\Users\\HectorDev\\Documents\\VotationUPC\\contracts\\Ballot.sol",
  "compiler": {
    "name": "solc",
    "version": "0.4.25+commit.59dbf8f1.Emscripten.clang"
  },
  "schemaVersion": "2.0.2",
  "updatedAt": "2020-05-04T05:39:34.731Z"
}